{
  "_format": "hh-sol-artifact-1",
  "contractName": "CharityRegistry",
  "sourceName": "contracts/CharityRegistry.sol",
  "abi": [
    {
      "inputs": [
        {
          "internalType": "address",
          "name": "_admin",
          "type": "address"
        }
      ],
      "stateMutability": "nonpayable",
      "type": "constructor"
    },
    {
      "inputs": [],
      "name": "AccessControlBadConfirmation",
      "type": "error"
    },
    {
      "inputs": [
        {
          "internalType": "address",
          "name": "account",
          "type": "address"
        },
        {
          "internalType": "bytes32",
          "name": "neededRole",
          "type": "bytes32"
        }
      ],
      "name": "AccessControlUnauthorizedAccount",
      "type": "error"
    },
    {
      "inputs": [],
      "name": "ReentrancyGuardReentrantCall",
      "type": "error"
    },
    {
      "anonymous": false,
      "inputs": [
        {
          "indexed": true,
          "internalType": "uint256",
          "name": "charityId",
          "type": "uint256"
        },
        {
          "indexed": false,
          "internalType": "uint256",
          "name": "oldScore",
          "type": "uint256"
        },
        {
          "indexed": false,
          "internalType": "uint256",
          "name": "newScore",
          "type": "uint256"
        },
        {
          "indexed": false,
          "internalType": "uint256",
          "name": "timestamp",
          "type": "uint256"
        }
      ],
      "name": "AiScoreUpdated",
      "type": "event"
    },
    {
      "anonymous": false,
      "inputs": [
        {
          "indexed": true,
          "internalType": "uint256",
          "name": "charityId",
          "type": "uint256"
        },
        {
          "indexed": true,
          "internalType": "address",
          "name": "wallet",
          "type": "address"
        },
        {
          "indexed": false,
          "internalType": "string",
          "name": "name",
          "type": "string"
        },
        {
          "indexed": false,
          "internalType": "uint256",
          "name": "timestamp",
          "type": "uint256"
        }
      ],
      "name": "CharityRegistered",
      "type": "event"
    },
    {
      "anonymous": false,
      "inputs": [
        {
          "indexed": true,
          "internalType": "uint256",
          "name": "charityId",
          "type": "uint256"
        },
        {
          "indexed": false,
          "internalType": "enum CharityRegistry.VerificationStatus",
          "name": "oldStatus",
          "type": "uint8"
        },
        {
          "indexed": false,
          "internalType": "enum CharityRegistry.VerificationStatus",
          "name": "newStatus",
          "type": "uint8"
        },
        {
          "indexed": false,
          "internalType": "uint256",
          "name": "timestamp",
          "type": "uint256"
        }
      ],
      "name": "CharityStatusChanged",
      "type": "event"
    },
    {
      "anonymous": false,
      "inputs": [
        {
          "indexed": true,
          "internalType": "uint256",
          "name": "charityId",
          "type": "uint256"
        },
        {
          "indexed": true,
          "internalType": "address",
          "name": "verifier",
          "type": "address"
        },
        {
          "indexed": false,
          "internalType": "enum CharityRegistry.VerificationStatus",
          "name": "status",
          "type": "uint8"
        },
        {
          "indexed": false,
          "internalType": "uint256",
          "name": "timestamp",
          "type": "uint256"
        }
      ],
      "name": "CharityVerified",
      "type": "event"
    },
    {
      "anonymous": false,
      "inputs": [
        {
          "indexed": true,
          "internalType": "uint256",
          "name": "charityId",
          "type": "uint256"
        },
        {
          "indexed": false,
          "internalType": "uint256",
          "name": "amount",
          "type": "uint256"
        },
        {
          "indexed": false,
          "internalType": "uint256",
          "name": "totalDonations",
          "type": "uint256"
        }
      ],
      "name": "DonationRecorded",
      "type": "event"
    },
    {
      "anonymous": false,
      "inputs": [
        {
          "indexed": false,
          "internalType": "uint256",
          "name": "oldScore",
          "type": "uint256"
        },
        {
          "indexed": false,
          "internalType": "uint256",
          "name": "newScore",
          "type": "uint256"
        }
      ],
      "name": "MinimumAiScoreUpdated",
      "type": "event"
    },
    {
      "anonymous": false,
      "inputs": [
        {
          "indexed": false,
          "internalType": "uint256",
          "name": "oldCount",
          "type": "uint256"
        },
        {
          "indexed": false,
          "internalType": "uint256",
          "name": "newCount",
          "type": "uint256"
        }
      ],
      "name": "RequiredApprovalsUpdated",
      "type": "event"
    },
    {
      "anonymous": false,
      "inputs": [
        {
          "indexed": true,
          "internalType": "bytes32",
          "name": "role",
          "type": "bytes32"
        },
        {
          "indexed": true,
          "internalType": "bytes32",
          "name": "previousAdminRole",
          "type": "bytes32"
        },
        {
          "indexed": true,
          "internalType": "bytes32",
          "name": "newAdminRole",
          "type": "bytes32"
        }
      ],
      "name": "RoleAdminChanged",
      "type": "event"
    },
    {
      "anonymous": false,
      "inputs": [
        {
          "indexed": true,
          "internalType": "bytes32",
          "name": "role",
          "type": "bytes32"
        },
        {
          "indexed": true,
          "internalType": "address",
          "name": "account",
          "type": "address"
        },
        {
          "indexed": true,
          "internalType": "address",
          "name": "sender",
          "type": "address"
        }
      ],
      "name": "RoleGranted",
      "type": "event"
    },
    {
      "anonymous": false,
      "inputs": [
        {
          "indexed": true,
          "internalType": "bytes32",
          "name": "role",
          "type": "bytes32"
        },
        {
          "indexed": true,
          "internalType": "address",
          "name": "account",
          "type": "address"
        },
        {
          "indexed": true,
          "internalType": "address",
          "name": "sender",
          "type": "address"
        }
      ],
      "name": "RoleRevoked",
      "type": "event"
    },
    {
      "inputs": [],
      "name": "ADMIN_ROLE",
      "outputs": [
        {
          "internalType": "bytes32",
          "name": "",
          "type": "bytes32"
        }
      ],
      "stateMutability": "view",
      "type": "function"
    },
    {
      "inputs": [],
      "name": "DEFAULT_ADMIN_ROLE",
      "outputs": [
        {
          "internalType": "bytes32",
          "name": "",
          "type": "bytes32"
        }
      ],
      "stateMutability": "view",
      "type": "function"
    },
    {
      "inputs": [],
      "name": "VERIFIER_ROLE",
      "outputs": [
        {
          "internalType": "bytes32",
          "name": "",
          "type": "bytes32"
        }
      ],
      "stateMutability": "view",
      "type": "function"
    },
    {
      "inputs": [
        {
          "internalType": "uint256",
          "name": "",
          "type": "uint256"
        }
      ],
      "name": "approvalCount",
      "outputs": [
        {
          "internalType": "uint256",
          "name": "",
          "type": "uint256"
        }
      ],
      "stateMutability": "view",
      "type": "function"
    },
    {
      "inputs": [
        {
          "internalType": "uint256",
          "name": "",
          "type": "uint256"
        },
        {
          "internalType": "address",
          "name": "",
          "type": "address"
        }
      ],
      "name": "approvals",
      "outputs": [
        {
          "internalType": "bool",
          "name": "",
          "type": "bool"
        }
      ],
      "stateMutability": "view",
      "type": "function"
    },
    {
      "inputs": [
        {
          "internalType": "uint256",
          "name": "_charityId",
          "type": "uint256"
        }
      ],
      "name": "approveCharity",
      "outputs": [],
      "stateMutability": "nonpayable",
      "type": "function"
    },
    {
      "inputs": [
        {
          "internalType": "uint256",
          "name": "",
          "type": "uint256"
        }
      ],
      "name": "charities",
      "outputs": [
        {
          "internalType": "string",
          "name": "name",
          "type": "string"
        },
        {
          "internalType": "string",
          "name": "description",
          "type": "string"
        },
        {
          "internalType": "string",
          "name": "ipfsHash",
          "type": "string"
        },
        {
          "internalType": "address",
          "name": "walletAddress",
          "type": "address"
        },
        {
          "internalType": "uint256",
          "name": "aiScore",
          "type": "uint256"
        },
        {
          "internalType": "enum CharityRegistry.VerificationStatus",
          "name": "status",
          "type": "uint8"
        },
        {
          "internalType": "uint256",
          "name": "registeredAt",
          "type": "uint256"
        },
        {
          "internalType": "uint256",
          "name": "verifiedAt",
          "type": "uint256"
        },
        {
          "internalType": "address",
          "name": "verifiedBy",
          "type": "address"
        },
        {
          "internalType": "uint256",
          "name": "totalDonationsReceived",
          "type": "uint256"
        },
        {
          "internalType": "uint256",
          "name": "donorCount",
          "type": "uint256"
        },
        {
          "internalType": "uint256",
          "name": "fundingGoal",
          "type": "uint256"
        },
        {
          "internalType": "uint256",
          "name": "deadline",
          "type": "uint256"
        },
        {
          "internalType": "bool",
          "name": "isActive",
          "type": "bool"
        },
        {
          "internalType": "uint256",
          "name": "totalETHDonations",
          "type": "uint256"
        },
        {
          "internalType": "uint256",
          "name": "totalUSDCDonations",
          "type": "uint256"
        }
      ],
      "stateMutability": "view",
      "type": "function"
    },
    {
      "inputs": [],
      "name": "charityCount",
      "outputs": [
        {
          "internalType": "uint256",
          "name": "",
          "type": "uint256"
        }
      ],
      "stateMutability": "view",
      "type": "function"
    },
    {
      "inputs": [
        {
          "internalType": "address",
          "name": "",
          "type": "address"
        }
      ],
      "name": "charityIdByAddress",
      "outputs": [
        {
          "internalType": "uint256",
          "name": "",
          "type": "uint256"
        }
      ],
      "stateMutability": "view",
      "type": "function"
    },
    {
      "inputs": [
        {
          "internalType": "uint256",
          "name": "_charityId",
          "type": "uint256"
        }
      ],
      "name": "getCharity",
      "outputs": [
        {
          "components": [
            {
              "internalType": "string",
              "name": "name",
              "type": "string"
            },
            {
              "internalType": "string",
              "name": "description",
              "type": "string"
            },
            {
              "internalType": "string",
              "name": "ipfsHash",
              "type": "string"
            },
            {
              "internalType": "address",
              "name": "walletAddress",
              "type": "address"
            },
            {
              "internalType": "uint256",
              "name": "aiScore",
              "type": "uint256"
            },
            {
              "internalType": "enum CharityRegistry.VerificationStatus",
              "name": "status",
              "type": "uint8"
            },
            {
              "internalType": "uint256",
              "name": "registeredAt",
              "type": "uint256"
            },
            {
              "internalType": "uint256",
              "name": "verifiedAt",
              "type": "uint256"
            },
            {
              "internalType": "address",
              "name": "verifiedBy",
              "type": "address"
            },
            {
              "internalType": "uint256",
              "name": "totalDonationsReceived",
              "type": "uint256"
            },
            {
              "internalType": "uint256",
              "name": "donorCount",
              "type": "uint256"
            },
            {
              "internalType": "uint256",
              "name": "fundingGoal",
              "type": "uint256"
            },
            {
              "internalType": "uint256",
              "name": "deadline",
              "type": "uint256"
            },
            {
              "internalType": "bool",
              "name": "isActive",
              "type": "bool"
            },
            {
              "internalType": "uint256",
              "name": "totalETHDonations",
              "type": "uint256"
            },
            {
              "internalType": "uint256",
              "name": "totalUSDCDonations",
              "type": "uint256"
            }
          ],
          "internalType": "struct CharityRegistry.Charity",
          "name": "",
          "type": "tuple"
        }
      ],
      "stateMutability": "view",
      "type": "function"
    },
    {
      "inputs": [
        {
          "internalType": "uint256",
          "name": "_charityId",
          "type": "uint256"
        }
      ],
      "name": "getCharityDonationsByToken",
      "outputs": [
        {
          "internalType": "uint256",
          "name": "ethAmount",
          "type": "uint256"
        },
        {
          "internalType": "uint256",
          "name": "usdcAmount",
          "type": "uint256"
        }
      ],
      "stateMutability": "view",
      "type": "function"
    },
    {
      "inputs": [
        {
          "internalType": "address",
          "name": "_wallet",
          "type": "address"
        }
      ],
      "name": "getCharityIdByWallet",
      "outputs": [
        {
          "internalType": "uint256",
          "name": "",
          "type": "uint256"
        }
      ],
      "stateMutability": "view",
      "type": "function"
    },
    {
      "inputs": [
        {
          "internalType": "bytes32",
          "name": "role",
          "type": "bytes32"
        }
      ],
      "name": "getRoleAdmin",
      "outputs": [
        {
          "internalType": "bytes32",
          "name": "",
          "type": "bytes32"
        }
      ],
      "stateMutability": "view",
      "type": "function"
    },
    {
      "inputs": [],
      "name": "getTotalCharities",
      "outputs": [
        {
          "internalType": "uint256",
          "name": "",
          "type": "uint256"
        }
      ],
      "stateMutability": "view",
      "type": "function"
    },
    {
      "inputs": [
        {
          "internalType": "bytes32",
          "name": "role",
          "type": "bytes32"
        },
        {
          "internalType": "address",
          "name": "account",
          "type": "address"
        }
      ],
      "name": "grantRole",
      "outputs": [],
      "stateMutability": "nonpayable",
      "type": "function"
    },
    {
      "inputs": [
        {
          "internalType": "bytes32",
          "name": "role",
          "type": "bytes32"
        },
        {
          "internalType": "address",
          "name": "account",
          "type": "address"
        }
      ],
      "name": "hasRole",
      "outputs": [
        {
          "internalType": "bool",
          "name": "",
          "type": "bool"
        }
      ],
      "stateMutability": "view",
      "type": "function"
    },
    {
      "inputs": [
        {
          "internalType": "uint256",
          "name": "_charityId",
          "type": "uint256"
        }
      ],
      "name": "isCharityVerified",
      "outputs": [
        {
          "internalType": "bool",
          "name": "",
          "type": "bool"
        }
      ],
      "stateMutability": "view",
      "type": "function"
    },
    {
      "inputs": [
        {
          "internalType": "address",
          "name": "",
          "type": "address"
        }
      ],
      "name": "isRegistered",
      "outputs": [
        {
          "internalType": "bool",
          "name": "",
          "type": "bool"
        }
      ],
      "stateMutability": "view",
      "type": "function"
    },
    {
      "inputs": [],
      "name": "minimumAiScore",
      "outputs": [
        {
          "internalType": "uint256",
          "name": "",
          "type": "uint256"
        }
      ],
      "stateMutability": "view",
      "type": "function"
    },
    {
      "inputs": [
        {
          "internalType": "uint256",
          "name": "_charityId",
          "type": "uint256"
        },
        {
          "internalType": "uint256",
          "name": "_amount",
          "type": "uint256"
        },
        {
          "internalType": "address",
          "name": "_token",
          "type": "address"
        }
      ],
      "name": "recordDonation",
      "outputs": [],
      "stateMutability": "nonpayable",
      "type": "function"
    },
    {
      "inputs": [
        {
          "internalType": "string",
          "name": "_name",
          "type": "string"
        },
        {
          "internalType": "string",
          "name": "_description",
          "type": "string"
        },
        {
          "internalType": "string",
          "name": "_ipfsHash",
          "type": "string"
        },
        {
          "internalType": "address",
          "name": "_walletAddress",
          "type": "address"
        },
        {
          "internalType": "uint256",
          "name": "_fundingGoal",
          "type": "uint256"
        },
        {
          "internalType": "uint256",
          "name": "_deadline",
          "type": "uint256"
        }
      ],
      "name": "registerCharity",
      "outputs": [
        {
          "internalType": "uint256",
          "name": "",
          "type": "uint256"
        }
      ],
      "stateMutability": "nonpayable",
      "type": "function"
    },
    {
      "inputs": [
        {
          "internalType": "uint256",
          "name": "_charityId",
          "type": "uint256"
        }
      ],
      "name": "rejectCharity",
      "outputs": [],
      "stateMutability": "nonpayable",
      "type": "function"
    },
    {
      "inputs": [
        {
          "internalType": "bytes32",
          "name": "role",
          "type": "bytes32"
        },
        {
          "internalType": "address",
          "name": "callerConfirmation",
          "type": "address"
        }
      ],
      "name": "renounceRole",
      "outputs": [],
      "stateMutability": "nonpayable",
      "type": "function"
    },
    {
      "inputs": [],
      "name": "requiredApprovals",
      "outputs": [
        {
          "internalType": "uint256",
          "name": "",
          "type": "uint256"
        }
      ],
      "stateMutability": "view",
      "type": "function"
    },
    {
      "inputs": [
        {
          "internalType": "bytes32",
          "name": "role",
          "type": "bytes32"
        },
        {
          "internalType": "address",
          "name": "account",
          "type": "address"
        }
      ],
      "name": "revokeRole",
      "outputs": [],
      "stateMutability": "nonpayable",
      "type": "function"
    },
    {
      "inputs": [
        {
          "internalType": "uint256",
          "name": "_newScore",
          "type": "uint256"
        }
      ],
      "name": "setMinimumAiScore",
      "outputs": [],
      "stateMutability": "nonpayable",
      "type": "function"
    },
    {
      "inputs": [
        {
          "internalType": "uint256",
          "name": "_newCount",
          "type": "uint256"
        }
      ],
      "name": "setRequiredApprovals",
      "outputs": [],
      "stateMutability": "nonpayable",
      "type": "function"
    },
    {
      "inputs": [
        {
          "internalType": "bytes4",
          "name": "interfaceId",
          "type": "bytes4"
        }
      ],
      "name": "supportsInterface",
      "outputs": [
        {
          "internalType": "bool",
          "name": "",
          "type": "bool"
        }
      ],
      "stateMutability": "view",
      "type": "function"
    },
    {
      "inputs": [
        {
          "internalType": "uint256",
          "name": "_charityId",
          "type": "uint256"
        }
      ],
      "name": "suspendCharity",
      "outputs": [],
      "stateMutability": "nonpayable",
      "type": "function"
    },
    {
      "inputs": [
        {
          "internalType": "uint256",
          "name": "_charityId",
          "type": "uint256"
        },
        {
          "internalType": "uint256",
          "name": "_score",
          "type": "uint256"
        }
      ],
      "name": "updateAiScore",
      "outputs": [],
      "stateMutability": "nonpayable",
      "type": "function"
    }
  ],
  "bytecode": "0x6080346200009657601f620021cd38819003918201601f19168301916001600160401b038311848410176200009b578084926020946040528339810103126200009657516001600160a01b03811681036200009657620000859060018055603c60065560026007556200007281620000b1565b506200007e8162000131565b50620001d3565b50604051611f3c9081620002718239f35b600080fd5b634e487b7160e01b600052604160045260246000fd5b6001600160a01b031660008181527fad3228b676f7d3cd4284a5443f17f1962b36e491b30a40b2405849e597ba5fb5602052604081205490919060ff166200012d57818052816020526040822081835260205260408220600160ff198254161790553391600080516020620021ad8339815191528180a4600190565b5090565b6001600160a01b031660008181527f7d7ffb7a348e1c6a02869081a26547b49160dd3df72d1d75a570eb9b698292ec60205260408120549091907fa49807205ce4d355092ef5a8a18f56e8913cf4a201fbe287825b095693c217759060ff16620001ce57808352826020526040832082845260205260408320600160ff19825416179055600080516020620021ad833981519152339380a4600190565b505090565b6001600160a01b031660008181527f1da0b5176dfe03406af5a6eed66ca01dda9b45ac4da671c3fa379cb93717ef8160205260408120549091907f0ce23c3e399818cfee81a7ab0880f714e53d7672b08df0fa62f2843416e1ea099060ff16620001ce57808352826020526040832082845260205260408320600160ff19825416179055600080516020620021ad833981519152339380a460019056fe60a080604052600436101561001357600080fd5b60003560e01c90816301ffc9a7146118b1575080631af2e8df146117cb57806320fbb65914611791578063222a242e146116f2578063248a9ca3146116c35780632f2ff15d1461168457806330ca81df1461166657806336568abe1461161f57806340ad01ea146115f35780634ccff5f8146114d85780636047bbb414611367578063629440fe1461147757806375b238fc1461143c5780638c04ff1c146114145780638f40241b14611385578063913294931461136757806391d148541461131a57806399c1aadc146112fc5780639eaec803146111ee578063a217fddf146111d2578063ab2850da14611185578063b3ea1b2614610974578063c3c5a54714610935578063d547741f146108f4578063daf6db8b1461082f578063e2ccacce14610618578063e7705db6146105dd578063fb709d2e14610480578063fd30b071146103f95763fd67db811461016957600080fd5b346103f45760203660031901126103f45760006101e060405161018b81611930565b6060815260606020820152606060408201528260608201528260808201528260a08201528260c08201528260e08201528261010082015282610120820152826101408201528261016082015282610180820152826101a0820152826101c082015201526005546101ff600435918210611d13565b60005260026020526040600020600f6040519161021b83611930565b61022481611a00565b835261023260018201611a00565b602084015261024360028201611a00565b604084015260038101546001600160a01b0316606084015260048101546080840152600581015461027a9060ff1660a08501611d07565b600681015460c0840152600781015460e084015260018060a01b036008820154166101008401526009810154610120840152600a810154610140840152600b810154610160840152600c81015461018084015260ff600d8201541615156101a0840152600e8101546101c084015201546101e08201526040518091602082526101e061034861031783516102006020870152610220860190611aa6565b610333602085015191601f199283888303016040890152611aa6565b90604085015190868303016060870152611aa6565b9160018060a01b036060820151166080850152608081015160a085015261037760a082015160c0860190611ae6565b60c081015160e085015260e081015161010085015260018060a01b03610100820151166101208501526101208101516101408501526101408101516101608501526101608101516101808501526101808101516101a08501526101a081015115156101c08501526101c08101518285015201516102008301520390f35b600080fd5b346103f45760403660031901126103f4576004357fd4668d7a9f692a316aa28f45c217736506081ad419d82a66d7d932a206845737606060243561043b611b6d565b6104486005548510611d13565b6104556064821115611d54565b83600052600260205260046040600020019080825492556040519182526020820152426040820152a2005b346103f45760203660031901126103f457600435600052600260205260406000206104aa81611a00565b6104b660018301611a00565b916104c360028201611a00565b92600160a01b60019003938460038401541694600484015490600585015460ff169060068601549060078701549060088801541690600988015492600a89015494600b8a015496600c8b015498600d8c015460ff169a600e8d01549c600f01549d604051806080526102008091526080510161053e91611aa6565b608051808203906020015261055291611aa6565b608051808203906040015261056691611aa6565b9c608051606001526080516080015260805160a00161058491611ae6565b60805160c0015260805160e001526080516101000152608051610120015260805161014001526080516101600152608051610180015215156080516101a001526080516101c001526080516101e0015260805180910390f35b346103f45760003660031901126103f45760206040517f0ce23c3e399818cfee81a7ab0880f714e53d7672b08df0fa62f2843416e1ea098152f35b346103f4576020806003193601126103f45760043590610636611b6d565b6106436005548310611d13565b8160005260028152604060002060ff6005820154169060048210156108195761066e60049215611d96565b0154600654116107dc578160005260088152604060002033600052815260ff604060002054166107a55781600052600881526040600020336000528152604060002060ff1990600182825416179055826000526009825260406000206106d48154611ce2565b9055826000526009825260406000205460075411156106ef57005b60ff60018361079960609460027f3befc0ce8310e26ffe85ad5163b3b4c111ecc6827f1b625235e9539e8d1532f8975260406000209084600d60058401938454948385871617905542600782015560088101336001600160601b0360a01b82541617905501918254161790556040518481524284820152887f2031580a1d76b783aa0dab33c2755f48d68edaaf882fc69f94c5cdec0286bb1b60403393a360405194859116611ae6565b820152426040820152a2005b6064906040519062461bcd60e51b82526004820152601060248201526f105b1c9958591e48185c1c1c9bdd995960821b6044820152fd5b6064906040519062461bcd60e51b82526004820152601660248201527541492073636f72652062656c6f77206d696e696d756d60501b6044820152fd5b634e487b7160e01b600052602160045260246000fd5b346103f45760603660031901126103f4576004356024356044356001600160a01b038116908190036103f4577faa9cfc9f52b87334b219d6d5263dc0b592c4e08ba1e8d637dce13ee6b979e69e9160409161088d6005548610611d13565b8460005260026020528260002060098101916108aa848454611dd8565b8355600a82016108ba8154611ce2565b90556108df57600e016108ce838254611dd8565b90555b5482519182526020820152a2005b600f016108ed838254611dd8565b90556108d1565b346103f45760403660031901126103f45761093360043561091361191a565b9080600052600060205261092e600160406000200154611bc9565b611c6d565b005b346103f45760203660031901126103f4576001600160a01b03610956611904565b166000526004602052602060ff604060002054166040519015158152f35b346103f45760c03660031901126103f45760043567ffffffffffffffff81116103f4576109a590369060040161196f565b60243567ffffffffffffffff81116103f4576109c590369060040161196f565b6044803567ffffffffffffffff81116103f4576109e690369060040161196f565b9160648035926001600160a01b03841684036103f45760026001541461117357600260015585511561113b57845115611105576001600160a01b038416156110cb576001600160a01b03841660009081526004602052604090205460ff1661108a576084351561103c5760a435610ff2575b505060055492610a6784611ce2565b60055560405191610a7783611930565b8583526020830152604082015260018060a01b038216606082015260006080820152600060a08201524260c0820152600060e082015260006101008201526000610120820152600061014082015260843561016082015260a43561018082015260016101a082015260006101c082015260006101e0820152826000526002602052604060002090805180519067ffffffffffffffff8211610e45578190610b1e85546119c6565b601f8111610fa2575b50602090601f8311600114610f3657600092610f2b575b50508160011b916000199060031b1c19161782555b602081015180519067ffffffffffffffff8211610e45578190610b7960018601546119c6565b601f8111610ed8575b50602090601f8311600114610e6657600092610e5b575b50508160011b916000199060031b1c19161760018301555b604081015180519067ffffffffffffffff8211610e45578190610bd760028601546119c6565b601f8111610df2575b50602090601f8311600114610d8057600092610d75575b50508160011b916000199060031b1c19161760028301555b6003820160018060a01b036060830151166001600160601b0360a01b8254161790556080810151600483015560a08101516004811015610819576020958593600f6101e07fe0d0f45dfcab3da28992ee2fe781f16f76ed8d50e43ab009bd892e52fa96bcbc95610d559560ff8019600587015416911617600585015560c0810151600685015560e081015160078501556008840160018060a01b03610100830151166001600160601b0360a01b8254161790556101208101516009850155610140810151600a850155610160810151600b850155610180810151600c850155600d84016101a0820151151560ff801983541691161790556101c0810151600e850155015191015560018060a01b0385166000526003875283604060002055600487526040600020600160ff19825416179055604051918291604083526040830190611aa6565b42828901526001600160a01b03909516940390a360018055604051908152f35b015190508780610bf7565b9250600285016000526020600020906000935b601f1984168510610dd7576001945083601f19811610610dbe575b505050811b016002830155610c0f565b015160001960f88460031b161c19169055878080610dae565b81810151835560209485019460019093019290910190610d93565b909150600285016000526020600020601f840160051c810160208510610e3e575b90849392915b601f830160051c82018110610e2f575050610be0565b60008155859450600101610e19565b5080610e13565b634e487b7160e01b600052604160045260246000fd5b015190508780610b99565b9250600185016000526020600020906000935b601f1984168510610ebd576001945083601f19811610610ea4575b505050811b016001830155610bb1565b015160001960f88460031b161c19169055878080610e94565b81810151835560209485019460019093019290910190610e79565b909150600185016000526020600020601f840160051c810160208510610f24575b90849392915b601f830160051c82018110610f15575050610b82565b60008155859450600101610eff565b5080610ef9565b015190508780610b3e565b9250846000526020600020906000935b601f1984168510610f87576001945083601f19811610610f6e575b505050811b018255610b53565b015160001960f88460031b161c19169055878080610f61565b81810151835560209485019460019093019290910190610f46565b909150846000526020600020601f840160051c810160208510610feb575b90849392915b601f830160051c82018110610fdc575050610b27565b60008155859450600101610fc6565b5080610fc0565b4260a43511610a58577f446561646c696e65206d75737420626520696e207468652066757475726500006040519162461bcd60e51b835260206004840152601e6024840152820152fd5b6206e20360ec1b6084927f46756e64696e6720676f616c206d7573742062652067726561746572207468616040519362461bcd60e51b85526020600486015260236024860152840152820152fd5b7f4368617269747920616c726561647920726567697374657265640000000000006040519162461bcd60e51b835260206004840152601a6024840152820152fd5b75496e76616c69642077616c6c6574206164647265737360501b6040519162461bcd60e51b83526020600484015260166024840152820152fd5b7112541194c81a185cda081c995c5d5a5c995960721b6040519162461bcd60e51b83526020600484015260126024840152820152fd5b734e616d652063616e6e6f7420626520656d70747960601b6040519162461bcd60e51b83526020600484015260146024840152820152fd5b604051633ee5aeb560e01b8152600490fd5b346103f45760403660031901126103f45761119e61191a565b600435600052600860205260406000209060018060a01b0316600052602052602060ff604060002054166040519015158152f35b346103f45760003660031901126103f457602060405160008152f35b346103f45760203660031901126103f45760043561120a611b6d565b6112176005548210611d13565b80600052600260205260ff6005604060002001541660048110156108195761123f9015611d96565b8060005260026020527f3befc0ce8310e26ffe85ad5163b3b4c111ecc6827f1b625235e9539e8d1532f8606060ff6112ec604060002060058101600d815492851992600284861617905542600782015560088101336001600160601b0360a01b8254161790550190815416905560405160028152426020820152867f2031580a1d76b783aa0dab33c2755f48d68edaaf882fc69f94c5cdec0286bb1b60403393a360405192839116611ae6565b60026020820152426040820152a2005b346103f45760003660031901126103f4576020600754604051908152f35b346103f45760403660031901126103f45761133361191a565b600435600052600060205260406000209060018060a01b0316600052602052602060ff604060002054166040519015158152f35b346103f45760003660031901126103f4576020600554604051908152f35b346103f45760203660031901126103f4576001600160a01b036113a6611904565b1680600052600460205260ff60406000205416156113d65760005260036020526020604060002054604051908152f35b60405162461bcd60e51b815260206004820152601660248201527510da185c9a5d1e481b9bdd081c9959da5cdd195c995960521b6044820152606490fd5b346103f45760203660031901126103f4576020611432600435611de5565b6040519015158152f35b346103f45760003660031901126103f45760206040517fa49807205ce4d355092ef5a8a18f56e8913cf4a201fbe287825b095693c217758152f35b346103f45760203660031901126103f4577f70602bed16931e708b1b26c2e4b3549bce26c9d70f9da62defc15cf110a4607160406004356114b6611af3565b6114c36064821115611d54565b600654908060065582519182526020820152a1005b346103f45760203660031901126103f4576004356114f96005548210611d13565b60005260026020526040806000206101e0825161151581611930565b61151e83611a00565b815261152c60018401611a00565b602082015261153d60028401611a00565b8185015260038301546001600160a01b0390811660608301526004840154608083015260058401546115759060ff1660a08401611d07565b600684015460c0830152600784015460e08301526008840154166101008201526009830154610120820152600a830154610140820152600b830154610160820152600c83015461018082015260ff600d8401541615156101a0820152600f600e84015493846101c08401520154918291015282519182526020820152f35b346103f45760203660031901126103f45760043560005260096020526020604060002054604051908152f35b346103f45760403660031901126103f45761163861191a565b336001600160a01b038216036116545761093390600435611c6d565b60405163334bd91960e11b8152600490fd5b346103f45760003660031901126103f4576020600654604051908152f35b346103f45760403660031901126103f4576109336004356116a361191a565b908060005260006020526116be600160406000200154611bc9565b611bef565b346103f45760203660031901126103f45760043560005260006020526020600160406000200154604051908152f35b346103f45760203660031901126103f45760043561170e611af3565b801561174d5760407fcbd3eb803c8088c0677f88231c298df176fddba3dfd2a266ebcc538c71885ef691600754908060075582519182526020820152a1005b606460405162461bcd60e51b815260206004820152602060248201527f4d7573742072657175697265206174206c65617374203120617070726f76616c6044820152fd5b346103f45760203660031901126103f4576001600160a01b036117b2611904565b1660005260036020526020604060002054604051908152f35b346103f45760203660031901126103f4576004356117e7611af3565b6117f46005548210611d13565b80600052600260205260406000206005810190815460ff8116906004821015610819576001820361187557600d6060937f3befc0ce8310e26ffe85ad5163b3b4c111ecc6827f1b625235e9539e8d1532f895600360ff19809516179055019081541690556118656040518092611ae6565b60036020820152426040820152a2005b60405162461bcd60e51b815260206004820152601460248201527310da185c9a5d1e481b9bdd08185c1c1c9bdd995960621b6044820152606490fd5b346103f45760203660031901126103f4576004359063ffffffff60e01b82168092036103f457602091637965db0b60e01b81149081156118f3575b5015158152f35b6301ffc9a760e01b149050836118ec565b600435906001600160a01b03821682036103f457565b602435906001600160a01b03821682036103f457565b610200810190811067ffffffffffffffff821117610e4557604052565b90601f8019910116810190811067ffffffffffffffff821117610e4557604052565b81601f820112156103f45780359067ffffffffffffffff8211610e4557604051926119a4601f8401601f19166020018561194d565b828452602083830101116103f457816000926020809301838601378301015290565b90600182811c921680156119f6575b60208310146119e057565b634e487b7160e01b600052602260045260246000fd5b91607f16916119d5565b9060405191826000825492611a14846119c6565b908184526001948581169081600014611a835750600114611a40575b5050611a3e9250038361194d565b565b9093915060005260209081600020936000915b818310611a6b575050611a3e93508201013880611a30565b85548884018501529485019487945091830191611a53565b915050611a3e94506020925060ff191682840152151560051b8201013880611a30565b919082519283825260005b848110611ad2575050826000602080949584010152601f8019910116010190565b602081830181015184830182015201611ab1565b9060048210156108195752565b3360009081527f7d7ffb7a348e1c6a02869081a26547b49160dd3df72d1d75a570eb9b698292ec60205260409020547fa49807205ce4d355092ef5a8a18f56e8913cf4a201fbe287825b095693c217759060ff1615611b4f5750565b6044906040519063e2517d3f60e01b82523360048301526024820152fd5b3360009081527f1da0b5176dfe03406af5a6eed66ca01dda9b45ac4da671c3fa379cb93717ef8160205260409020547f0ce23c3e399818cfee81a7ab0880f714e53d7672b08df0fa62f2843416e1ea099060ff1615611b4f5750565b80600052600060205260406000203360005260205260ff6040600020541615611b4f5750565b9060009180835282602052604083209160018060a01b03169182845260205260ff60408420541615600014611c6857808352826020526040832082845260205260408320600160ff198254161790557f2f8788117e7eff1d82e926ec794901d17c78024a50270940304540a733656f0d339380a4600190565b505090565b9060009180835282602052604083209160018060a01b03169182845260205260ff604084205416600014611c685780835282602052604083208284526020526040832060ff1981541690557ff6391f5c32d9c69d2a47ea670b442974b53935d1edc7fd64eb21e047a839171b339380a4600190565b6000198114611cf15760010190565b634e487b7160e01b600052601160045260246000fd5b60048210156108195752565b15611d1a57565b60405162461bcd60e51b8152602060048201526012602482015271125b9d985b1a590818da185c9a5d1e48125160721b6044820152606490fd5b15611d5b57565b60405162461bcd60e51b8152602060048201526013602482015272053636f7265206d75737420626520302d31303606c1b6044820152606490fd5b15611d9d57565b60405162461bcd60e51b815260206004820152601360248201527243686172697479206e6f742070656e64696e6760681b6044820152606490fd5b91908201809211611cf157565b600554811015611f005760005260026020526040600020604051611e0881611930565b611e1182611a00565b8152611e1f60018301611a00565b6020820152611e3060028301611a00565b604082015260038201546001600160a01b03908116606083015260048301546080830152600583015460a08301929190611e6d9060ff1684611d07565b600684015460c0830152600784015460e08301526008840154166101008201526009830154610120820152600a830154610140820152600b830154610160820152600c8301546101808201526101e0600f60ff600d86015416946101a084019515158652600e8101546101c08501520154910152516004811015610819576001149081611ef8575090565b905051151590565b5060009056fea26469706673582212206ad50ff2ec4999f0d855de4a5d601e26aa2918a2d6524f38e6196dd6db6c20d564736f6c634300081400332f8788117e7eff1d82e926ec794901d17c78024a50270940304540a733656f0d",
  "linkReferences": {},
  "deployedLinkReferences": {}
}