{
  "_format": "hh-sol-artifact-1",
  "contractName": "CharityRegistry",
  "sourceName": "contracts/CharityRegistry.sol",
  "abi": [
    {
      "inputs": [
        {
          "internalType": "address",
          "name": "_admin",
          "type": "address"
        }
      ],
      "stateMutability": "nonpayable",
      "type": "constructor"
    },
    {
      "inputs": [],
      "name": "AccessControlBadConfirmation",
      "type": "error"
    },
    {
      "inputs": [
        {
          "internalType": "address",
          "name": "account",
          "type": "address"
        },
        {
          "internalType": "bytes32",
          "name": "neededRole",
          "type": "bytes32"
        }
      ],
      "name": "AccessControlUnauthorizedAccount",
      "type": "error"
    },
    {
      "inputs": [],
      "name": "ReentrancyGuardReentrantCall",
      "type": "error"
    },
    {
      "anonymous": false,
      "inputs": [
        {
          "indexed": true,
          "internalType": "uint256",
          "name": "charityId",
          "type": "uint256"
        },
        {
          "indexed": false,
          "internalType": "uint256",
          "name": "oldScore",
          "type": "uint256"
        },
        {
          "indexed": false,
          "internalType": "uint256",
          "name": "newScore",
          "type": "uint256"
        },
        {
          "indexed": false,
          "internalType": "uint256",
          "name": "timestamp",
          "type": "uint256"
        }
      ],
      "name": "AiScoreUpdated",
      "type": "event"
    },
    {
      "anonymous": false,
      "inputs": [
        {
          "indexed": true,
          "internalType": "uint256",
          "name": "charityId",
          "type": "uint256"
        },
        {
          "indexed": false,
          "internalType": "string[]",
          "name": "imageHashes",
          "type": "string[]"
        },
        {
          "indexed": false,
          "internalType": "uint256",
          "name": "timestamp",
          "type": "uint256"
        }
      ],
      "name": "CharityImagesAdded",
      "type": "event"
    },
    {
      "anonymous": false,
      "inputs": [
        {
          "indexed": true,
          "internalType": "uint256",
          "name": "charityId",
          "type": "uint256"
        },
        {
          "indexed": true,
          "internalType": "address",
          "name": "wallet",
          "type": "address"
        },
        {
          "indexed": false,
          "internalType": "string",
          "name": "name",
          "type": "string"
        },
        {
          "indexed": false,
          "internalType": "uint256",
          "name": "timestamp",
          "type": "uint256"
        }
      ],
      "name": "CharityRegistered",
      "type": "event"
    },
    {
      "anonymous": false,
      "inputs": [
        {
          "indexed": true,
          "internalType": "uint256",
          "name": "charityId",
          "type": "uint256"
        },
        {
          "indexed": false,
          "internalType": "enum CharityRegistry.VerificationStatus",
          "name": "oldStatus",
          "type": "uint8"
        },
        {
          "indexed": false,
          "internalType": "enum CharityRegistry.VerificationStatus",
          "name": "newStatus",
          "type": "uint8"
        },
        {
          "indexed": false,
          "internalType": "uint256",
          "name": "timestamp",
          "type": "uint256"
        }
      ],
      "name": "CharityStatusChanged",
      "type": "event"
    },
    {
      "anonymous": false,
      "inputs": [
        {
          "indexed": true,
          "internalType": "uint256",
          "name": "charityId",
          "type": "uint256"
        },
        {
          "indexed": true,
          "internalType": "address",
          "name": "verifier",
          "type": "address"
        },
        {
          "indexed": false,
          "internalType": "enum CharityRegistry.VerificationStatus",
          "name": "status",
          "type": "uint8"
        },
        {
          "indexed": false,
          "internalType": "uint256",
          "name": "timestamp",
          "type": "uint256"
        }
      ],
      "name": "CharityVerified",
      "type": "event"
    },
    {
      "anonymous": false,
      "inputs": [
        {
          "indexed": true,
          "internalType": "uint256",
          "name": "charityId",
          "type": "uint256"
        },
        {
          "indexed": false,
          "internalType": "uint256",
          "name": "amount",
          "type": "uint256"
        },
        {
          "indexed": false,
          "internalType": "uint256",
          "name": "totalDonations",
          "type": "uint256"
        }
      ],
      "name": "DonationRecorded",
      "type": "event"
    },
    {
      "anonymous": false,
      "inputs": [
        {
          "indexed": false,
          "internalType": "uint256",
          "name": "oldScore",
          "type": "uint256"
        },
        {
          "indexed": false,
          "internalType": "uint256",
          "name": "newScore",
          "type": "uint256"
        }
      ],
      "name": "MinimumAiScoreUpdated",
      "type": "event"
    },
    {
      "anonymous": false,
      "inputs": [
        {
          "indexed": false,
          "internalType": "uint256",
          "name": "oldCount",
          "type": "uint256"
        },
        {
          "indexed": false,
          "internalType": "uint256",
          "name": "newCount",
          "type": "uint256"
        }
      ],
      "name": "RequiredApprovalsUpdated",
      "type": "event"
    },
    {
      "anonymous": false,
      "inputs": [
        {
          "indexed": true,
          "internalType": "bytes32",
          "name": "role",
          "type": "bytes32"
        },
        {
          "indexed": true,
          "internalType": "bytes32",
          "name": "previousAdminRole",
          "type": "bytes32"
        },
        {
          "indexed": true,
          "internalType": "bytes32",
          "name": "newAdminRole",
          "type": "bytes32"
        }
      ],
      "name": "RoleAdminChanged",
      "type": "event"
    },
    {
      "anonymous": false,
      "inputs": [
        {
          "indexed": true,
          "internalType": "bytes32",
          "name": "role",
          "type": "bytes32"
        },
        {
          "indexed": true,
          "internalType": "address",
          "name": "account",
          "type": "address"
        },
        {
          "indexed": true,
          "internalType": "address",
          "name": "sender",
          "type": "address"
        }
      ],
      "name": "RoleGranted",
      "type": "event"
    },
    {
      "anonymous": false,
      "inputs": [
        {
          "indexed": true,
          "internalType": "bytes32",
          "name": "role",
          "type": "bytes32"
        },
        {
          "indexed": true,
          "internalType": "address",
          "name": "account",
          "type": "address"
        },
        {
          "indexed": true,
          "internalType": "address",
          "name": "sender",
          "type": "address"
        }
      ],
      "name": "RoleRevoked",
      "type": "event"
    },
    {
      "inputs": [],
      "name": "ADMIN_ROLE",
      "outputs": [
        {
          "internalType": "bytes32",
          "name": "",
          "type": "bytes32"
        }
      ],
      "stateMutability": "view",
      "type": "function"
    },
    {
      "inputs": [],
      "name": "DEFAULT_ADMIN_ROLE",
      "outputs": [
        {
          "internalType": "bytes32",
          "name": "",
          "type": "bytes32"
        }
      ],
      "stateMutability": "view",
      "type": "function"
    },
    {
      "inputs": [],
      "name": "REGISTRATION_COOLDOWN",
      "outputs": [
        {
          "internalType": "uint256",
          "name": "",
          "type": "uint256"
        }
      ],
      "stateMutability": "view",
      "type": "function"
    },
    {
      "inputs": [],
      "name": "VERIFIER_ROLE",
      "outputs": [
        {
          "internalType": "bytes32",
          "name": "",
          "type": "bytes32"
        }
      ],
      "stateMutability": "view",
      "type": "function"
    },
    {
      "inputs": [
        {
          "internalType": "uint256",
          "name": "_charityId",
          "type": "uint256"
        },
        {
          "internalType": "string[]",
          "name": "_imageHashes",
          "type": "string[]"
        }
      ],
      "name": "addCharityImages",
      "outputs": [],
      "stateMutability": "nonpayable",
      "type": "function"
    },
    {
      "inputs": [
        {
          "internalType": "uint256",
          "name": "",
          "type": "uint256"
        }
      ],
      "name": "approvalCount",
      "outputs": [
        {
          "internalType": "uint256",
          "name": "",
          "type": "uint256"
        }
      ],
      "stateMutability": "view",
      "type": "function"
    },
    {
      "inputs": [
        {
          "internalType": "uint256",
          "name": "",
          "type": "uint256"
        },
        {
          "internalType": "address",
          "name": "",
          "type": "address"
        }
      ],
      "name": "approvals",
      "outputs": [
        {
          "internalType": "bool",
          "name": "",
          "type": "bool"
        }
      ],
      "stateMutability": "view",
      "type": "function"
    },
    {
      "inputs": [
        {
          "internalType": "uint256",
          "name": "",
          "type": "uint256"
        }
      ],
      "name": "charities",
      "outputs": [
        {
          "internalType": "string",
          "name": "name",
          "type": "string"
        },
        {
          "internalType": "string",
          "name": "description",
          "type": "string"
        },
        {
          "internalType": "string",
          "name": "ipfsHash",
          "type": "string"
        },
        {
          "internalType": "address",
          "name": "walletAddress",
          "type": "address"
        },
        {
          "internalType": "uint256",
          "name": "aiScore",
          "type": "uint256"
        },
        {
          "internalType": "enum CharityRegistry.VerificationStatus",
          "name": "status",
          "type": "uint8"
        },
        {
          "internalType": "uint256",
          "name": "registeredAt",
          "type": "uint256"
        },
        {
          "internalType": "uint256",
          "name": "verifiedAt",
          "type": "uint256"
        },
        {
          "internalType": "address",
          "name": "verifiedBy",
          "type": "address"
        },
        {
          "internalType": "uint256",
          "name": "totalDonationsReceived",
          "type": "uint256"
        },
        {
          "internalType": "uint256",
          "name": "donorCount",
          "type": "uint256"
        },
        {
          "internalType": "uint256",
          "name": "fundingGoal",
          "type": "uint256"
        },
        {
          "internalType": "uint256",
          "name": "deadline",
          "type": "uint256"
        },
        {
          "internalType": "bool",
          "name": "isActive",
          "type": "bool"
        },
        {
          "internalType": "uint256",
          "name": "totalETHDonations",
          "type": "uint256"
        },
        {
          "internalType": "uint256",
          "name": "totalUSDCDonations",
          "type": "uint256"
        }
      ],
      "stateMutability": "view",
      "type": "function"
    },
    {
      "inputs": [
        {
          "internalType": "address",
          "name": "",
          "type": "address"
        },
        {
          "internalType": "uint256",
          "name": "",
          "type": "uint256"
        }
      ],
      "name": "charitiesByAddress",
      "outputs": [
        {
          "internalType": "uint256",
          "name": "",
          "type": "uint256"
        }
      ],
      "stateMutability": "view",
      "type": "function"
    },
    {
      "inputs": [],
      "name": "charityCount",
      "outputs": [
        {
          "internalType": "uint256",
          "name": "",
          "type": "uint256"
        }
      ],
      "stateMutability": "view",
      "type": "function"
    },
    {
      "inputs": [
        {
          "internalType": "address",
          "name": "_wallet",
          "type": "address"
        }
      ],
      "name": "getCharitiesByWallet",
      "outputs": [
        {
          "internalType": "uint256[]",
          "name": "",
          "type": "uint256[]"
        }
      ],
      "stateMutability": "view",
      "type": "function"
    },
    {
      "inputs": [
        {
          "internalType": "uint256",
          "name": "_charityId",
          "type": "uint256"
        }
      ],
      "name": "getCharity",
      "outputs": [
        {
          "components": [
            {
              "internalType": "string",
              "name": "name",
              "type": "string"
            },
            {
              "internalType": "string",
              "name": "description",
              "type": "string"
            },
            {
              "internalType": "string",
              "name": "ipfsHash",
              "type": "string"
            },
            {
              "internalType": "address",
              "name": "walletAddress",
              "type": "address"
            },
            {
              "internalType": "uint256",
              "name": "aiScore",
              "type": "uint256"
            },
            {
              "internalType": "enum CharityRegistry.VerificationStatus",
              "name": "status",
              "type": "uint8"
            },
            {
              "internalType": "uint256",
              "name": "registeredAt",
              "type": "uint256"
            },
            {
              "internalType": "uint256",
              "name": "verifiedAt",
              "type": "uint256"
            },
            {
              "internalType": "address",
              "name": "verifiedBy",
              "type": "address"
            },
            {
              "internalType": "uint256",
              "name": "totalDonationsReceived",
              "type": "uint256"
            },
            {
              "internalType": "uint256",
              "name": "donorCount",
              "type": "uint256"
            },
            {
              "internalType": "uint256",
              "name": "fundingGoal",
              "type": "uint256"
            },
            {
              "internalType": "uint256",
              "name": "deadline",
              "type": "uint256"
            },
            {
              "internalType": "bool",
              "name": "isActive",
              "type": "bool"
            },
            {
              "internalType": "uint256",
              "name": "totalETHDonations",
              "type": "uint256"
            },
            {
              "internalType": "uint256",
              "name": "totalUSDCDonations",
              "type": "uint256"
            },
            {
              "internalType": "string[]",
              "name": "imageHashes",
              "type": "string[]"
            }
          ],
          "internalType": "struct CharityRegistry.Charity",
          "name": "",
          "type": "tuple"
        }
      ],
      "stateMutability": "view",
      "type": "function"
    },
    {
      "inputs": [
        {
          "internalType": "uint256",
          "name": "_charityId",
          "type": "uint256"
        }
      ],
      "name": "getCharityDonationsByToken",
      "outputs": [
        {
          "internalType": "uint256",
          "name": "ethAmount",
          "type": "uint256"
        },
        {
          "internalType": "uint256",
          "name": "usdcAmount",
          "type": "uint256"
        }
      ],
      "stateMutability": "view",
      "type": "function"
    },
    {
      "inputs": [
        {
          "internalType": "bytes32",
          "name": "role",
          "type": "bytes32"
        }
      ],
      "name": "getRoleAdmin",
      "outputs": [
        {
          "internalType": "bytes32",
          "name": "",
          "type": "bytes32"
        }
      ],
      "stateMutability": "view",
      "type": "function"
    },
    {
      "inputs": [],
      "name": "getTotalCharities",
      "outputs": [
        {
          "internalType": "uint256",
          "name": "",
          "type": "uint256"
        }
      ],
      "stateMutability": "view",
      "type": "function"
    },
    {
      "inputs": [
        {
          "internalType": "bytes32",
          "name": "role",
          "type": "bytes32"
        },
        {
          "internalType": "address",
          "name": "account",
          "type": "address"
        }
      ],
      "name": "grantRole",
      "outputs": [],
      "stateMutability": "nonpayable",
      "type": "function"
    },
    {
      "inputs": [
        {
          "internalType": "bytes32",
          "name": "role",
          "type": "bytes32"
        },
        {
          "internalType": "address",
          "name": "account",
          "type": "address"
        }
      ],
      "name": "hasRole",
      "outputs": [
        {
          "internalType": "bool",
          "name": "",
          "type": "bool"
        }
      ],
      "stateMutability": "view",
      "type": "function"
    },
    {
      "inputs": [
        {
          "internalType": "uint256",
          "name": "_charityId",
          "type": "uint256"
        }
      ],
      "name": "isCharityVerified",
      "outputs": [
        {
          "internalType": "bool",
          "name": "",
          "type": "bool"
        }
      ],
      "stateMutability": "view",
      "type": "function"
    },
    {
      "inputs": [
        {
          "internalType": "address",
          "name": "",
          "type": "address"
        }
      ],
      "name": "lastRegistrationTime",
      "outputs": [
        {
          "internalType": "uint256",
          "name": "",
          "type": "uint256"
        }
      ],
      "stateMutability": "view",
      "type": "function"
    },
    {
      "inputs": [],
      "name": "minimumAiScore",
      "outputs": [
        {
          "internalType": "uint256",
          "name": "",
          "type": "uint256"
        }
      ],
      "stateMutability": "view",
      "type": "function"
    },
    {
      "inputs": [
        {
          "internalType": "uint256",
          "name": "_charityId",
          "type": "uint256"
        },
        {
          "internalType": "uint256",
          "name": "_amount",
          "type": "uint256"
        },
        {
          "internalType": "address",
          "name": "_token",
          "type": "address"
        }
      ],
      "name": "recordDonation",
      "outputs": [],
      "stateMutability": "nonpayable",
      "type": "function"
    },
    {
      "inputs": [
        {
          "internalType": "string",
          "name": "_name",
          "type": "string"
        },
        {
          "internalType": "string",
          "name": "_description",
          "type": "string"
        },
        {
          "internalType": "string",
          "name": "_ipfsHash",
          "type": "string"
        },
        {
          "internalType": "address",
          "name": "_walletAddress",
          "type": "address"
        },
        {
          "internalType": "uint256",
          "name": "_fundingGoal",
          "type": "uint256"
        },
        {
          "internalType": "uint256",
          "name": "_deadline",
          "type": "uint256"
        },
        {
          "internalType": "string[]",
          "name": "_imageHashes",
          "type": "string[]"
        }
      ],
      "name": "registerCharity",
      "outputs": [
        {
          "internalType": "uint256",
          "name": "",
          "type": "uint256"
        }
      ],
      "stateMutability": "nonpayable",
      "type": "function"
    },
    {
      "inputs": [
        {
          "internalType": "bytes32",
          "name": "role",
          "type": "bytes32"
        },
        {
          "internalType": "address",
          "name": "callerConfirmation",
          "type": "address"
        }
      ],
      "name": "renounceRole",
      "outputs": [],
      "stateMutability": "nonpayable",
      "type": "function"
    },
    {
      "inputs": [
        {
          "internalType": "bytes32",
          "name": "role",
          "type": "bytes32"
        },
        {
          "internalType": "address",
          "name": "account",
          "type": "address"
        }
      ],
      "name": "revokeRole",
      "outputs": [],
      "stateMutability": "nonpayable",
      "type": "function"
    },
    {
      "inputs": [
        {
          "internalType": "uint256",
          "name": "_newScore",
          "type": "uint256"
        }
      ],
      "name": "setMinimumAiScore",
      "outputs": [],
      "stateMutability": "nonpayable",
      "type": "function"
    },
    {
      "inputs": [
        {
          "internalType": "bytes4",
          "name": "interfaceId",
          "type": "bytes4"
        }
      ],
      "name": "supportsInterface",
      "outputs": [
        {
          "internalType": "bool",
          "name": "",
          "type": "bool"
        }
      ],
      "stateMutability": "view",
      "type": "function"
    },
    {
      "inputs": [
        {
          "internalType": "uint256",
          "name": "_charityId",
          "type": "uint256"
        }
      ],
      "name": "suspendCharity",
      "outputs": [],
      "stateMutability": "nonpayable",
      "type": "function"
    },
    {
      "inputs": [
        {
          "internalType": "uint256",
          "name": "_charityId",
          "type": "uint256"
        },
        {
          "internalType": "uint256",
          "name": "_score",
          "type": "uint256"
        }
      ],
      "name": "updateAiScore",
      "outputs": [],
      "stateMutability": "nonpayable",
      "type": "function"
    }
  ],
  "bytecode": "0x6080346200009157601f620023d738819003918201601f19168301916001600160401b0383118484101762000096578084926020946040528339810103126200009157516001600160a01b03811681036200009157620000809060018055603c6006556200006d81620000ac565b5062000079816200012c565b50620001ce565b5060405161214b90816200026c8239f35b600080fd5b634e487b7160e01b600052604160045260246000fd5b6001600160a01b031660008181527fad3228b676f7d3cd4284a5443f17f1962b36e491b30a40b2405849e597ba5fb5602052604081205490919060ff166200012857818052816020526040822081835260205260408220600160ff198254161790553391600080516020620023b78339815191528180a4600190565b5090565b6001600160a01b031660008181527f7d7ffb7a348e1c6a02869081a26547b49160dd3df72d1d75a570eb9b698292ec60205260408120549091907fa49807205ce4d355092ef5a8a18f56e8913cf4a201fbe287825b095693c217759060ff16620001c957808352826020526040832082845260205260408320600160ff19825416179055600080516020620023b7833981519152339380a4600190565b505090565b6001600160a01b031660008181527f1da0b5176dfe03406af5a6eed66ca01dda9b45ac4da671c3fa379cb93717ef8160205260408120549091907f0ce23c3e399818cfee81a7ab0880f714e53d7672b08df0fa62f2843416e1ea099060ff16620001c957808352826020526040832082845260205260408320600160ff19825416179055600080516020620023b7833981519152339380a460019056fe60a080604052600436101561001357600080fd5b60003560e01c90816301ffc9a7146118df575080631af2e8df146117f9578063228dc457146117a0578063248a9ca31461177157806325a2843a146110285780632f2ff15d14610fe957806330ca81df14610fcb57806336568abe14610f8457806340ad01ea14610f585780634ccff5f814610ddb5780636047bbb414610cbf578063629440fe14610d7a57806375b238fc14610d3f5780637f6e8cbf14610d055780638c04ff1c14610cdd5780639132949314610cbf57806391d1485414610c725780639ac133aa14610af7578063a217fddf14610adb578063ab2850da14610a8e578063b0ff638314610a70578063d547741f14610a2f578063d6664fb91461097b578063daf6db8b146108b6578063e7705db61461087b578063fb709d2e1461071e578063fd30b0711461046d5763fd67db811461015357600080fd5b346104685760203660031901126104685760606102006040516101758161198c565b82815282602082015282604082015260008382015260006080820152600060a0820152600060c0820152600060e08201526000610100820152600061012082015260006101408201526000610160820152600061018082015260006101a082015260006101c082015260006101e082015201526005546101f9600435918210611efd565b600052600260205260406000206040516102128161198c565b61021b82611af5565b815261022960018301611af5565b602082015261023a60028301611af5565b604082015260038201546001600160a01b031660608201526004820154608082015260058201546102719060ff1660a08301611dd5565b600682015460c0820152600782015460e082015260088201546001600160a01b03166101008201526009820154610120820152600a820154610140820152600b820154610160820152600c820154610180820152600d82015460ff1615156101a0820152600e8201546101c0820152600f8201546101e082015260108201546102f981611a22565b9261030760405194856119a9565b818452601060208501910160005260206000206000915b83831061044b5761044785876102008201526040519182916020835261020061038761037161035b84516102206020890152610240880190611b9b565b6020850151878203601f19016040890152611b9b565b6040840151868203601f19016060880152611b9b565b9160018060a01b036060820151166080860152608081015160a08601526103b660a082015160c0870190611bdb565b60c081015160e086015260e081015161010086015260018060a01b03610100820151166101208601526101208101516101408601526101408101516101608601526101608101516101808601526101808101516101a08601526101a081015115156101c08601526101c08101516101e08601526101e0810151828601520151601f1984830301610220850152611be8565b0390f35b60016020819261045a85611af5565b81520192019201919061031e565b600080fd5b34610468576040366003190112610468573360009081527f1da0b5176dfe03406af5a6eed66ca01dda9b45ac4da671c3fa379cb93717ef81602090815260409091205460043591602435917f0ce23c3e399818cfee81a7ab0880f714e53d7672b08df0fa62f2843416e1ea099060ff161561070057506104f06005548410611efd565b6104fd6064831115611f3e565b82600052600291828252604060002060ff60058201541660048110156106ea576106a5579260609260ff92867fd4668d7a9f692a316aa28f45c217736506081ad419d82a66d7d932a2068457378660047f3befc0ce8310e26ffe85ad5163b3b4c111ecc6827f1b625235e9539e8d1532f8990184815491556040519081528486820152426040820152a2600654116106225760019186600052815261061660406000206005810184600d8254938819938385871617905542600782015560088101336001600160601b0360a01b82541617905501918254161790556040518481524284820152887f2031580a1d76b783aa0dab33c2755f48d68edaaf882fc69f94c5cdec0286bb1b60403393a360405194859116611bdb565b820152426040820152a2005b85600052818152610616604060002060058101600d8154928719928784861617905542600782015560088101336001600160601b0360a01b825416179055019081541690556040518481524284820152887f2031580a1d76b783aa0dab33c2755f48d68edaaf882fc69f94c5cdec0286bb1b60403393a360405194859116611bdb565b60405162461bcd60e51b815260048101849052601860248201527f4368617269747920616c726561647920766572696669656400000000000000006044820152606490fd5b634e487b7160e01b600052602160045260246000fd5b6044906040519063e2517d3f60e01b82523360048301526024820152fd5b34610468576020366003190112610468576004356000526002602052604060002061074881611af5565b61075460018301611af5565b9161076160028201611af5565b92600160a01b60019003938460038401541694600484015490600585015460ff169060068601549060078701549060088801541690600988015492600a89015494600b8a015496600c8b015498600d8c015460ff169a600e8d01549c600f01549d60405180608052610200809152608051016107dc91611b9b565b60805180820390602001526107f091611b9b565b608051808203906040015261080491611b9b565b9c608051606001526080516080015260805160a00161082291611bdb565b60805160c0015260805160e001526080516101000152608051610120015260805161014001526080516101600152608051610180015215156080516101a001526080516101c001526080516101e0015260805180910390f35b346104685760003660031901126104685760206040517f0ce23c3e399818cfee81a7ab0880f714e53d7672b08df0fa62f2843416e1ea098152f35b34610468576060366003190112610468576004356024356044356001600160a01b03811690819003610468577faa9cfc9f52b87334b219d6d5263dc0b592c4e08ba1e8d637dce13ee6b979e69e916040916109146005548610611efd565b846000526002602052826000206009810191610931848454611db9565b8355600a82016109418154611dc6565b905561096657600e01610955838254611db9565b90555b5482519182526020820152a2005b600f01610974838254611db9565b9055610958565b3461046857602080600319360112610468576001600160a01b0361099d611932565b1660005260038152604060002060405190818382549182815201908192600052846000209060005b86828210610a1b5786866109db828803836119a9565b604051928392818401908285525180915260408401929160005b828110610a0457505050500390f35b8351855286955093810193928101926001016109f5565b8354855290930192600192830192016109c5565b3461046857604036600319011261046857610a6e600435610a4e611948565b90806000526000602052610a69600160406000200154611ca0565b611d44565b005b346104685760003660031901126104685760206040516276a7008152f35b3461046857604036600319011261046857610aa7611948565b600435600052600760205260406000209060018060a01b0316600052602052602060ff604060002054166040519015158152f35b3461046857600036600319011261046857602060405160008152f35b34610468576040366003190112610468576004356024803567ffffffffffffffff811161046857610b2c903690600401611a3a565b90600591610b3c83548510611efd565b836000526020906002825260406000209360018060a01b036003860154163303610c245760106000969501955b8251811015610bde578381831b840101518754600160401b811015610bc957806001610b9892018a558961195e565b610bb457610baf9291610baa91611df8565b611dc6565b610b69565b86634e487b7160e01b60005260006004526000fd5b86634e487b7160e01b60005260416004526000fd5b857f770ecf52beeafe7653dd35df55389c83141b429aae61406746b02c60186a4486610c198587604051928392604084526040840190611be8565b9042908301520390a2005b60405162461bcd60e51b8152600481018490526021818601527f4f6e6c792063686172697479206f776e65722063616e2061646420696d6167656044820152607360f81b6064820152608490fd5b3461046857604036600319011261046857610c8b611948565b600435600052600060205260406000209060018060a01b0316600052602052602060ff604060002054166040519015158152f35b34610468576000366003190112610468576020600554604051908152f35b34610468576020366003190112610468576020610cfb600435611f80565b6040519015158152f35b34610468576020366003190112610468576001600160a01b03610d26611932565b1660005260046020526020604060002054604051908152f35b346104685760003660031901126104685760206040517fa49807205ce4d355092ef5a8a18f56e8913cf4a201fbe287825b095693c217758152f35b34610468576020366003190112610468577f70602bed16931e708b1b26c2e4b3549bce26c9d70f9da62defc15cf110a460716040600435610db9611c44565b610dc66064821115611f3e565b600654908060065582519182526020820152a1005b346104685760208060031936011261046857600435610dfd6005548210611efd565b60005260028152604060002060405191610e168361198c565b610e1f82611af5565b83526001610e2e818401611af5565b82850152610e3e60028401611af5565b604085015260038301546001600160a01b039081166060860152600484015460808601526005840154610e779060ff1660a08701611dd5565b600684015460c0860152600784015460e08601526008840154166101008501526009830154610120850152600a830154610140850152600b830154610160850152600c83015461018085015260ff600d8401541615156101a0850152600e830154906101c085019182526010600f850154946101e0870195865201908154610efe81611a22565b92610f0c60405194856119a9565b81845260009081528581208685015b838310610f3d5750505050506102006040950152519151908351928352820152f35b84888192610f4a85611af5565b815201920192019190610f1b565b346104685760203660031901126104685760043560005260086020526020604060002054604051908152f35b3461046857604036600319011261046857610f9d611948565b336001600160a01b03821603610fb957610a6e90600435611d44565b60405163334bd91960e11b8152600490fd5b34610468576000366003190112610468576020600654604051908152f35b3461046857604036600319011261046857610a6e600435611008611948565b90806000526000602052611023600160406000200154611ca0565b611cc6565b346104685760e03660031901126104685767ffffffffffffffff6004358181116104685761105a9036906004016119cb565b90602435818111610468576110739036906004016119cb565b906044358181116104685761108c9036906004016119cb565b91606435916001600160a01b03831683036104685760c435908111610468576110b9903690600401611a3a565b60026001541461175f576002600155845115611723578351156116e9576001600160a01b038316156116ab576084351561165a5760a43561160c575b6001600160a01b0383166000908152600460205260409020548061157f575b506001600160a01b03831660009081526003602052604081208054915b8281106114a7575050506005549361114885611dc6565b600555604051926111588461198c565b8684526020840152604083015260018060a01b038316606083015260006080830152600060a08301524260c0830152600060e083015260006101008301526000610120830152600061014083015260843561016083015260a43561018083015260016101a083015260006101c083015260006101e08301526102008201528260005260026020526040600020906111f0815183611df8565b611201602082015160018401611df8565b611212604082015160028401611df8565b6003820160018060a01b036060830151166001600160601b0360a01b8254161790556080810151600483015560a08101519060048210156106ea576102009160ff199060ff82600587015416911617600585015560c0820151600685015560e082015160078501556008840160018060a01b03610100840151166001600160601b0360a01b8254161790556101208201516009850155610140820151600a850155610160820151600b850155610180820151600c850155600d84019060ff6101a084015115159183541691161790556101c0810151600e8401556101e0810151600f840155015190815191600160401b83116113fb57601082015483601084015580841061142e575b50602060109101910160005260206000206000915b83831061141157505050506001600160a01b038116600090815260036020526040902080549390600160401b8510156113fb576113db849261139b877fe0d0f45dfcab3da28992ee2fe781f16f76ed8d50e43ab009bd892e52fa96bcbc94600160209a01815561195e565b81549060031b9086821b91600019901b191617905560018060a01b0385166000526004875242604060002055604051918291604083526040830190611b9b565b42828901526001600160a01b03909516940390a360018055604051908152f35b634e487b7160e01b600052604160045260246000fd5b600160208261142283945186611df8565b01920192019190611330565b601083016000526020600020908482015b818301811061144f57505061131b565b8061145c60019254611abb565b80611469575b500161143f565b601f908181118414611482575050600081555b8a611462565b61149e60009284845260208420920160051c8201858301611de1565b8183555561147c565b6114b1818361195e565b90549060031b1c6000526002602052604060002060ff80600d83015416159182611566575b5050156114eb576114e690611dc6565b611131565b60405162461bcd60e51b815260206004820152604760248201527f43616e6e6f74207265676973746572206e65772063686172697479207768696c60448201527f6520796f75206861766520616e20616374697665206f722070656e64696e67206064820152666368617269747960c81b608482015260a490fd5b6005015416905060048110156106ea57151589806114d6565b6276a70081018091116115f65742106115985785611114565b60405162461bcd60e51b815260206004820152603060248201527f4d75737420776169742033206d6f6e746873206265747765656e20636861726960448201526f747920726567697374726174696f6e7360801b6064820152608490fd5b634e487b7160e01b600052601160045260246000fd5b4260a435116110f55760405162461bcd60e51b815260206004820152601e60248201527f446561646c696e65206d75737420626520696e207468652066757475726500006044820152606490fd5b60405162461bcd60e51b815260206004820152602360248201527f46756e64696e6720676f616c206d75737420626520677265617465722074686160448201526206e20360ec1b6064820152608490fd5b60405162461bcd60e51b8152602060048201526016602482015275496e76616c69642077616c6c6574206164647265737360501b6044820152606490fd5b60405162461bcd60e51b815260206004820152601260248201527112541194c81a185cda081c995c5d5a5c995960721b6044820152606490fd5b60405162461bcd60e51b81526020600482015260146024820152734e616d652063616e6e6f7420626520656d70747960601b6044820152606490fd5b604051633ee5aeb560e01b8152600490fd5b346104685760203660031901126104685760043560005260006020526020600160406000200154604051908152f35b34610468576040366003190112610468576117b9611932565b6001600160a01b0316600090815260036020526040902080546024359190821015610468576020916117ea9161195e565b90549060031b1c604051908152f35b3461046857602036600319011261046857600435611815611c44565b6118226005548210611efd565b80600052600260205260406000206005810190815460ff81169060048210156106ea57600182036118a357600d6060937f3befc0ce8310e26ffe85ad5163b3b4c111ecc6827f1b625235e9539e8d1532f895600360ff19809516179055019081541690556118936040518092611bdb565b60036020820152426040820152a2005b60405162461bcd60e51b815260206004820152601460248201527310da185c9a5d1e481b9bdd08185c1c1c9bdd995960621b6044820152606490fd5b34610468576020366003190112610468576004359063ffffffff60e01b821680920361046857602091637965db0b60e01b8114908115611921575b5015158152f35b6301ffc9a760e01b1490508361191a565b600435906001600160a01b038216820361046857565b602435906001600160a01b038216820361046857565b80548210156119765760005260206000200190600090565b634e487b7160e01b600052603260045260246000fd5b610220810190811067ffffffffffffffff8211176113fb57604052565b90601f8019910116810190811067ffffffffffffffff8211176113fb57604052565b81601f820112156104685780359067ffffffffffffffff82116113fb5760405192611a00601f8401601f1916602001856119a9565b8284526020838301011161046857816000926020809301838601378301015290565b67ffffffffffffffff81116113fb5760051b60200190565b9080601f8301121561046857813590611a5282611a22565b92611a6060405194856119a9565b828452602092838086019160051b8301019280841161046857848301915b848310611a8e5750505050505090565b823567ffffffffffffffff8111610468578691611ab0848480948901016119cb565b815201920191611a7e565b90600182811c92168015611aeb575b6020831014611ad557565b634e487b7160e01b600052602260045260246000fd5b91607f1691611aca565b9060405191826000825492611b0984611abb565b908184526001948581169081600014611b785750600114611b35575b5050611b33925003836119a9565b565b9093915060005260209081600020936000915b818310611b60575050611b3393508201013880611b25565b85548884018501529485019487945091830191611b48565b915050611b3394506020925060ff191682840152151560051b8201013880611b25565b919082519283825260005b848110611bc7575050826000602080949584010152601f8019910116010190565b602081830181015184830182015201611ba6565b9060048210156106ea5752565b908082519081815260208091019281808460051b8301019501936000915b848310611c165750505050505090565b9091929394958480611c34600193601f198682030187528a51611b9b565b9801930193019194939290611c06565b3360009081527f7d7ffb7a348e1c6a02869081a26547b49160dd3df72d1d75a570eb9b698292ec60205260409020547fa49807205ce4d355092ef5a8a18f56e8913cf4a201fbe287825b095693c217759060ff16156107005750565b80600052600060205260406000203360005260205260ff60406000205416156107005750565b9060009180835282602052604083209160018060a01b03169182845260205260ff60408420541615600014611d3f57808352826020526040832082845260205260408320600160ff198254161790557f2f8788117e7eff1d82e926ec794901d17c78024a50270940304540a733656f0d339380a4600190565b505090565b9060009180835282602052604083209160018060a01b03169182845260205260ff604084205416600014611d3f5780835282602052604083208284526020526040832060ff1981541690557ff6391f5c32d9c69d2a47ea670b442974b53935d1edc7fd64eb21e047a839171b339380a4600190565b919082018092116115f657565b60001981146115f65760010190565b60048210156106ea5752565b818110611dec575050565b60008155600101611de1565b919091825167ffffffffffffffff81116113fb57611e168254611abb565b601f8111611ec0575b50602080601f8311600114611e5c575081929394600092611e51575b50508160011b916000199060031b1c1916179055565b015190503880611e3b565b90601f198316958460005282600020926000905b888210611ea857505083600195969710611e8f575b505050811b019055565b015160001960f88460031b161c19169055388080611e85565b80600185968294968601518155019501930190611e70565b611eed90836000526020600020601f840160051c81019160208510611ef3575b601f0160051c0190611de1565b38611e1f565b9091508190611ee0565b15611f0457565b60405162461bcd60e51b8152602060048201526012602482015271125b9d985b1a590818da185c9a5d1e48125160721b6044820152606490fd5b15611f4557565b60405162461bcd60e51b8152602060048201526013602482015272053636f7265206d75737420626520302d31303606c1b6044820152606490fd5b60055481101561210f5760009081526020600281526040822091604051611fa68161198c565b611faf84611af5565b8152600192611fbf848601611af5565b81830152611fcf60028601611af5565b604083015260038501546001600160a01b03908116606084015260048601546080840152600586015460a0840193919061200c9060ff1685611dd5565b600687015460c0830152600787015460e08301526008870154166101008201526009860154610120820152600a860154610140820152600b860154610160820152600c860154610180820152601060ff600d88015416966101a083019715158852600e8101546101c0840152600f8101546101e08401520180549061209082611a22565b9361209e60405195866119a9565b8285528085019187528087208888935b8585106120f3575050505050506102000152519060048210156120df57501490816120d7575090565b905051151590565b634e487b7160e01b81526021600452602490fd5b8382916120ff85611af5565b81520192019301929089906120ae565b5060009056fea264697066735822122064ad85fde33b01569a26d1fb1bc629d4378d5cf9458b43efb7e392b382cd31d064736f6c634300081400332f8788117e7eff1d82e926ec794901d17c78024a50270940304540a733656f0d",
  "linkReferences": {},
  "deployedLinkReferences": {}
}