{
  "_format": "hh-sol-artifact-1",
  "contractName": "DonationManager",
  "sourceName": "contracts/DonationManager.sol",
  "abi": [
    {
      "inputs": [
        {
          "internalType": "address",
          "name": "_charityRegistry",
          "type": "address"
        },
        {
          "internalType": "address",
          "name": "_vibeToken",
          "type": "address"
        },
        {
          "internalType": "address",
          "name": "_impactNFT",
          "type": "address"
        },
        {
          "internalType": "address",
          "name": "_feeCollector",
          "type": "address"
        },
        {
          "internalType": "address",
          "name": "_admin",
          "type": "address"
        }
      ],
      "stateMutability": "nonpayable",
      "type": "constructor"
    },
    {
      "inputs": [],
      "name": "AccessControlBadConfirmation",
      "type": "error"
    },
    {
      "inputs": [
        {
          "internalType": "address",
          "name": "account",
          "type": "address"
        },
        {
          "internalType": "bytes32",
          "name": "neededRole",
          "type": "bytes32"
        }
      ],
      "name": "AccessControlUnauthorizedAccount",
      "type": "error"
    },
    {
      "inputs": [],
      "name": "ReentrancyGuardReentrantCall",
      "type": "error"
    },
    {
      "inputs": [
        {
          "internalType": "address",
          "name": "token",
          "type": "address"
        }
      ],
      "name": "SafeERC20FailedOperation",
      "type": "error"
    },
    {
      "anonymous": false,
      "inputs": [
        {
          "indexed": true,
          "internalType": "uint256",
          "name": "charityId",
          "type": "uint256"
        },
        {
          "indexed": false,
          "internalType": "uint256",
          "name": "timestamp",
          "type": "uint256"
        }
      ],
      "name": "CharityFinalized",
      "type": "event"
    },
    {
      "anonymous": false,
      "inputs": [
        {
          "indexed": true,
          "internalType": "uint256",
          "name": "donationId",
          "type": "uint256"
        },
        {
          "indexed": true,
          "internalType": "address",
          "name": "donor",
          "type": "address"
        },
        {
          "indexed": true,
          "internalType": "uint256",
          "name": "charityId",
          "type": "uint256"
        },
        {
          "indexed": false,
          "internalType": "uint256",
          "name": "amount",
          "type": "uint256"
        },
        {
          "indexed": false,
          "internalType": "address",
          "name": "token",
          "type": "address"
        },
        {
          "indexed": false,
          "internalType": "uint256",
          "name": "vibeRewarded",
          "type": "uint256"
        },
        {
          "indexed": false,
          "internalType": "uint256",
          "name": "timestamp",
          "type": "uint256"
        }
      ],
      "name": "DonationMade",
      "type": "event"
    },
    {
      "anonymous": false,
      "inputs": [
        {
          "indexed": true,
          "internalType": "address",
          "name": "token",
          "type": "address"
        },
        {
          "indexed": false,
          "internalType": "uint256",
          "name": "amount",
          "type": "uint256"
        },
        {
          "indexed": false,
          "internalType": "address",
          "name": "to",
          "type": "address"
        }
      ],
      "name": "EmergencyWithdrawal",
      "type": "event"
    },
    {
      "anonymous": false,
      "inputs": [
        {
          "indexed": false,
          "internalType": "uint256",
          "name": "amount",
          "type": "uint256"
        },
        {
          "indexed": false,
          "internalType": "address",
          "name": "token",
          "type": "address"
        },
        {
          "indexed": false,
          "internalType": "uint256",
          "name": "timestamp",
          "type": "uint256"
        }
      ],
      "name": "FeeCollected",
      "type": "event"
    },
    {
      "anonymous": false,
      "inputs": [
        {
          "indexed": true,
          "internalType": "uint256",
          "name": "charityId",
          "type": "uint256"
        },
        {
          "indexed": false,
          "internalType": "uint256",
          "name": "ethAmount",
          "type": "uint256"
        },
        {
          "indexed": false,
          "internalType": "uint256",
          "name": "usdcAmount",
          "type": "uint256"
        },
        {
          "indexed": false,
          "internalType": "address",
          "name": "charityWallet",
          "type": "address"
        },
        {
          "indexed": false,
          "internalType": "string",
          "name": "reason",
          "type": "string"
        },
        {
          "indexed": false,
          "internalType": "uint256",
          "name": "timestamp",
          "type": "uint256"
        }
      ],
      "name": "FundsReleased",
      "type": "event"
    },
    {
      "anonymous": false,
      "inputs": [
        {
          "indexed": true,
          "internalType": "uint256",
          "name": "donationId",
          "type": "uint256"
        },
        {
          "indexed": true,
          "internalType": "address",
          "name": "donor",
          "type": "address"
        },
        {
          "indexed": false,
          "internalType": "uint256",
          "name": "tokenId",
          "type": "uint256"
        }
      ],
      "name": "NFTMinted",
      "type": "event"
    },
    {
      "anonymous": false,
      "inputs": [
        {
          "indexed": false,
          "internalType": "uint256",
          "name": "oldThreshold",
          "type": "uint256"
        },
        {
          "indexed": false,
          "internalType": "uint256",
          "name": "newThreshold",
          "type": "uint256"
        }
      ],
      "name": "NFTThresholdUpdated",
      "type": "event"
    },
    {
      "anonymous": false,
      "inputs": [
        {
          "indexed": false,
          "internalType": "uint256",
          "name": "oldFee",
          "type": "uint256"
        },
        {
          "indexed": false,
          "internalType": "uint256",
          "name": "newFee",
          "type": "uint256"
        }
      ],
      "name": "PlatformFeeUpdated",
      "type": "event"
    },
    {
      "anonymous": false,
      "inputs": [
        {
          "indexed": true,
          "internalType": "uint256",
          "name": "recurringId",
          "type": "uint256"
        },
        {
          "indexed": false,
          "internalType": "uint256",
          "name": "timestamp",
          "type": "uint256"
        }
      ],
      "name": "RecurringDonationCancelled",
      "type": "event"
    },
    {
      "anonymous": false,
      "inputs": [
        {
          "indexed": true,
          "internalType": "uint256",
          "name": "recurringId",
          "type": "uint256"
        },
        {
          "indexed": true,
          "internalType": "address",
          "name": "donor",
          "type": "address"
        },
        {
          "indexed": true,
          "internalType": "uint256",
          "name": "charityId",
          "type": "uint256"
        },
        {
          "indexed": false,
          "internalType": "uint256",
          "name": "amount",
          "type": "uint256"
        },
        {
          "indexed": false,
          "internalType": "uint256",
          "name": "interval",
          "type": "uint256"
        }
      ],
      "name": "RecurringDonationCreated",
      "type": "event"
    },
    {
      "anonymous": false,
      "inputs": [
        {
          "indexed": true,
          "internalType": "uint256",
          "name": "recurringId",
          "type": "uint256"
        },
        {
          "indexed": false,
          "internalType": "uint256",
          "name": "donationId",
          "type": "uint256"
        },
        {
          "indexed": false,
          "internalType": "uint256",
          "name": "timestamp",
          "type": "uint256"
        }
      ],
      "name": "RecurringDonationExecuted",
      "type": "event"
    },
    {
      "anonymous": false,
      "inputs": [
        {
          "indexed": true,
          "internalType": "bytes32",
          "name": "role",
          "type": "bytes32"
        },
        {
          "indexed": true,
          "internalType": "bytes32",
          "name": "previousAdminRole",
          "type": "bytes32"
        },
        {
          "indexed": true,
          "internalType": "bytes32",
          "name": "newAdminRole",
          "type": "bytes32"
        }
      ],
      "name": "RoleAdminChanged",
      "type": "event"
    },
    {
      "anonymous": false,
      "inputs": [
        {
          "indexed": true,
          "internalType": "bytes32",
          "name": "role",
          "type": "bytes32"
        },
        {
          "indexed": true,
          "internalType": "address",
          "name": "account",
          "type": "address"
        },
        {
          "indexed": true,
          "internalType": "address",
          "name": "sender",
          "type": "address"
        }
      ],
      "name": "RoleGranted",
      "type": "event"
    },
    {
      "anonymous": false,
      "inputs": [
        {
          "indexed": true,
          "internalType": "bytes32",
          "name": "role",
          "type": "bytes32"
        },
        {
          "indexed": true,
          "internalType": "address",
          "name": "account",
          "type": "address"
        },
        {
          "indexed": true,
          "internalType": "address",
          "name": "sender",
          "type": "address"
        }
      ],
      "name": "RoleRevoked",
      "type": "event"
    },
    {
      "anonymous": false,
      "inputs": [
        {
          "indexed": false,
          "internalType": "uint256",
          "name": "oldRate",
          "type": "uint256"
        },
        {
          "indexed": false,
          "internalType": "uint256",
          "name": "newRate",
          "type": "uint256"
        }
      ],
      "name": "VibeRewardRateUpdated",
      "type": "event"
    },
    {
      "inputs": [],
      "name": "ADMIN_ROLE",
      "outputs": [
        {
          "internalType": "bytes32",
          "name": "",
          "type": "bytes32"
        }
      ],
      "stateMutability": "view",
      "type": "function"
    },
    {
      "inputs": [],
      "name": "DEFAULT_ADMIN_ROLE",
      "outputs": [
        {
          "internalType": "bytes32",
          "name": "",
          "type": "bytes32"
        }
      ],
      "stateMutability": "view",
      "type": "function"
    },
    {
      "inputs": [],
      "name": "MAX_FEE_BPS",
      "outputs": [
        {
          "internalType": "uint256",
          "name": "",
          "type": "uint256"
        }
      ],
      "stateMutability": "view",
      "type": "function"
    },
    {
      "inputs": [],
      "name": "OPERATOR_ROLE",
      "outputs": [
        {
          "internalType": "bytes32",
          "name": "",
          "type": "bytes32"
        }
      ],
      "stateMutability": "view",
      "type": "function"
    },
    {
      "inputs": [],
      "name": "USDC_TOKEN",
      "outputs": [
        {
          "internalType": "address",
          "name": "",
          "type": "address"
        }
      ],
      "stateMutability": "view",
      "type": "function"
    },
    {
      "inputs": [
        {
          "internalType": "uint256",
          "name": "_recurringId",
          "type": "uint256"
        }
      ],
      "name": "cancelRecurringDonation",
      "outputs": [],
      "stateMutability": "nonpayable",
      "type": "function"
    },
    {
      "inputs": [
        {
          "internalType": "uint256",
          "name": "",
          "type": "uint256"
        },
        {
          "internalType": "uint256",
          "name": "",
          "type": "uint256"
        }
      ],
      "name": "charityDonations",
      "outputs": [
        {
          "internalType": "uint256",
          "name": "",
          "type": "uint256"
        }
      ],
      "stateMutability": "view",
      "type": "function"
    },
    {
      "inputs": [
        {
          "internalType": "uint256",
          "name": "",
          "type": "uint256"
        }
      ],
      "name": "charityFunds",
      "outputs": [
        {
          "internalType": "uint256",
          "name": "ethBalance",
          "type": "uint256"
        },
        {
          "internalType": "uint256",
          "name": "usdcBalance",
          "type": "uint256"
        },
        {
          "internalType": "uint256",
          "name": "ethFees",
          "type": "uint256"
        },
        {
          "internalType": "uint256",
          "name": "usdcFees",
          "type": "uint256"
        },
        {
          "internalType": "bool",
          "name": "fundsReleased",
          "type": "bool"
        },
        {
          "internalType": "uint256",
          "name": "releasedAt",
          "type": "uint256"
        }
      ],
      "stateMutability": "view",
      "type": "function"
    },
    {
      "inputs": [],
      "name": "charityRegistry",
      "outputs": [
        {
          "internalType": "contract CharityRegistry",
          "name": "",
          "type": "address"
        }
      ],
      "stateMutability": "view",
      "type": "function"
    },
    {
      "inputs": [
        {
          "internalType": "uint256",
          "name": "_charityId",
          "type": "uint256"
        },
        {
          "internalType": "uint256",
          "name": "_amount",
          "type": "uint256"
        },
        {
          "internalType": "address",
          "name": "_token",
          "type": "address"
        },
        {
          "internalType": "uint256",
          "name": "_interval",
          "type": "uint256"
        }
      ],
      "name": "createRecurringDonation",
      "outputs": [],
      "stateMutability": "nonpayable",
      "type": "function"
    },
    {
      "inputs": [
        {
          "internalType": "uint256",
          "name": "_charityId",
          "type": "uint256"
        },
        {
          "internalType": "address",
          "name": "_token",
          "type": "address"
        },
        {
          "internalType": "uint256",
          "name": "_amount",
          "type": "uint256"
        }
      ],
      "name": "donateERC20",
      "outputs": [],
      "stateMutability": "nonpayable",
      "type": "function"
    },
    {
      "inputs": [
        {
          "internalType": "uint256",
          "name": "_charityId",
          "type": "uint256"
        }
      ],
      "name": "donateETH",
      "outputs": [],
      "stateMutability": "payable",
      "type": "function"
    },
    {
      "inputs": [],
      "name": "donationCount",
      "outputs": [
        {
          "internalType": "uint256",
          "name": "",
          "type": "uint256"
        }
      ],
      "stateMutability": "view",
      "type": "function"
    },
    {
      "inputs": [
        {
          "internalType": "uint256",
          "name": "",
          "type": "uint256"
        }
      ],
      "name": "donations",
      "outputs": [
        {
          "internalType": "address",
          "name": "donor",
          "type": "address"
        },
        {
          "internalType": "uint256",
          "name": "charityId",
          "type": "uint256"
        },
        {
          "internalType": "uint256",
          "name": "amount",
          "type": "uint256"
        },
        {
          "internalType": "address",
          "name": "token",
          "type": "address"
        },
        {
          "internalType": "uint256",
          "name": "timestamp",
          "type": "uint256"
        },
        {
          "internalType": "uint256",
          "name": "vibeRewarded",
          "type": "uint256"
        },
        {
          "internalType": "bool",
          "name": "nftMinted",
          "type": "bool"
        }
      ],
      "stateMutability": "view",
      "type": "function"
    },
    {
      "inputs": [
        {
          "internalType": "address",
          "name": "",
          "type": "address"
        },
        {
          "internalType": "uint256",
          "name": "",
          "type": "uint256"
        }
      ],
      "name": "donorCharityTotal",
      "outputs": [
        {
          "internalType": "uint256",
          "name": "",
          "type": "uint256"
        }
      ],
      "stateMutability": "view",
      "type": "function"
    },
    {
      "inputs": [
        {
          "internalType": "address",
          "name": "",
          "type": "address"
        },
        {
          "internalType": "uint256",
          "name": "",
          "type": "uint256"
        }
      ],
      "name": "donorDonations",
      "outputs": [
        {
          "internalType": "uint256",
          "name": "",
          "type": "uint256"
        }
      ],
      "stateMutability": "view",
      "type": "function"
    },
    {
      "inputs": [
        {
          "internalType": "address",
          "name": "",
          "type": "address"
        },
        {
          "internalType": "uint256",
          "name": "",
          "type": "uint256"
        }
      ],
      "name": "donorRecurringDonations",
      "outputs": [
        {
          "internalType": "uint256",
          "name": "",
          "type": "uint256"
        }
      ],
      "stateMutability": "view",
      "type": "function"
    },
    {
      "inputs": [
        {
          "internalType": "address",
          "name": "_token",
          "type": "address"
        },
        {
          "internalType": "uint256",
          "name": "_amount",
          "type": "uint256"
        },
        {
          "internalType": "address",
          "name": "_to",
          "type": "address"
        }
      ],
      "name": "emergencyWithdraw",
      "outputs": [],
      "stateMutability": "nonpayable",
      "type": "function"
    },
    {
      "inputs": [
        {
          "internalType": "uint256",
          "name": "_recurringId",
          "type": "uint256"
        }
      ],
      "name": "executeRecurringDonation",
      "outputs": [],
      "stateMutability": "payable",
      "type": "function"
    },
    {
      "inputs": [],
      "name": "feeCollector",
      "outputs": [
        {
          "internalType": "address",
          "name": "",
          "type": "address"
        }
      ],
      "stateMutability": "view",
      "type": "function"
    },
    {
      "inputs": [
        {
          "internalType": "uint256",
          "name": "_charityId",
          "type": "uint256"
        }
      ],
      "name": "finalizeCharity",
      "outputs": [],
      "stateMutability": "nonpayable",
      "type": "function"
    },
    {
      "inputs": [
        {
          "internalType": "uint256",
          "name": "_charityId",
          "type": "uint256"
        }
      ],
      "name": "getCharityDonations",
      "outputs": [
        {
          "internalType": "uint256[]",
          "name": "",
          "type": "uint256[]"
        }
      ],
      "stateMutability": "view",
      "type": "function"
    },
    {
      "inputs": [
        {
          "internalType": "uint256",
          "name": "_charityId",
          "type": "uint256"
        }
      ],
      "name": "getCharityFunds",
      "outputs": [
        {
          "components": [
            {
              "internalType": "uint256",
              "name": "ethBalance",
              "type": "uint256"
            },
            {
              "internalType": "uint256",
              "name": "usdcBalance",
              "type": "uint256"
            },
            {
              "internalType": "uint256",
              "name": "ethFees",
              "type": "uint256"
            },
            {
              "internalType": "uint256",
              "name": "usdcFees",
              "type": "uint256"
            },
            {
              "internalType": "bool",
              "name": "fundsReleased",
              "type": "bool"
            },
            {
              "internalType": "uint256",
              "name": "releasedAt",
              "type": "uint256"
            }
          ],
          "internalType": "struct DonationManager.CharityFunds",
          "name": "",
          "type": "tuple"
        }
      ],
      "stateMutability": "view",
      "type": "function"
    },
    {
      "inputs": [
        {
          "internalType": "uint256",
          "name": "_donationId",
          "type": "uint256"
        }
      ],
      "name": "getDonation",
      "outputs": [
        {
          "components": [
            {
              "internalType": "address",
              "name": "donor",
              "type": "address"
            },
            {
              "internalType": "uint256",
              "name": "charityId",
              "type": "uint256"
            },
            {
              "internalType": "uint256",
              "name": "amount",
              "type": "uint256"
            },
            {
              "internalType": "address",
              "name": "token",
              "type": "address"
            },
            {
              "internalType": "uint256",
              "name": "timestamp",
              "type": "uint256"
            },
            {
              "internalType": "uint256",
              "name": "vibeRewarded",
              "type": "uint256"
            },
            {
              "internalType": "bool",
              "name": "nftMinted",
              "type": "bool"
            }
          ],
          "internalType": "struct DonationManager.Donation",
          "name": "",
          "type": "tuple"
        }
      ],
      "stateMutability": "view",
      "type": "function"
    },
    {
      "inputs": [
        {
          "internalType": "address",
          "name": "_donor",
          "type": "address"
        }
      ],
      "name": "getDonorDonations",
      "outputs": [
        {
          "internalType": "uint256[]",
          "name": "",
          "type": "uint256[]"
        }
      ],
      "stateMutability": "view",
      "type": "function"
    },
    {
      "inputs": [
        {
          "internalType": "bytes32",
          "name": "role",
          "type": "bytes32"
        }
      ],
      "name": "getRoleAdmin",
      "outputs": [
        {
          "internalType": "bytes32",
          "name": "",
          "type": "bytes32"
        }
      ],
      "stateMutability": "view",
      "type": "function"
    },
    {
      "inputs": [
        {
          "internalType": "bytes32",
          "name": "role",
          "type": "bytes32"
        },
        {
          "internalType": "address",
          "name": "account",
          "type": "address"
        }
      ],
      "name": "grantRole",
      "outputs": [],
      "stateMutability": "nonpayable",
      "type": "function"
    },
    {
      "inputs": [
        {
          "internalType": "bytes32",
          "name": "role",
          "type": "bytes32"
        },
        {
          "internalType": "address",
          "name": "account",
          "type": "address"
        }
      ],
      "name": "hasRole",
      "outputs": [
        {
          "internalType": "bool",
          "name": "",
          "type": "bool"
        }
      ],
      "stateMutability": "view",
      "type": "function"
    },
    {
      "inputs": [],
      "name": "impactNFT",
      "outputs": [
        {
          "internalType": "contract ImpactNFT",
          "name": "",
          "type": "address"
        }
      ],
      "stateMutability": "view",
      "type": "function"
    },
    {
      "inputs": [],
      "name": "nftThreshold",
      "outputs": [
        {
          "internalType": "uint256",
          "name": "",
          "type": "uint256"
        }
      ],
      "stateMutability": "view",
      "type": "function"
    },
    {
      "inputs": [],
      "name": "platformFeeBps",
      "outputs": [
        {
          "internalType": "uint256",
          "name": "",
          "type": "uint256"
        }
      ],
      "stateMutability": "view",
      "type": "function"
    },
    {
      "inputs": [],
      "name": "recurringDonationCount",
      "outputs": [
        {
          "internalType": "uint256",
          "name": "",
          "type": "uint256"
        }
      ],
      "stateMutability": "view",
      "type": "function"
    },
    {
      "inputs": [
        {
          "internalType": "uint256",
          "name": "",
          "type": "uint256"
        }
      ],
      "name": "recurringDonations",
      "outputs": [
        {
          "internalType": "address",
          "name": "donor",
          "type": "address"
        },
        {
          "internalType": "uint256",
          "name": "charityId",
          "type": "uint256"
        },
        {
          "internalType": "uint256",
          "name": "amount",
          "type": "uint256"
        },
        {
          "internalType": "address",
          "name": "token",
          "type": "address"
        },
        {
          "internalType": "uint256",
          "name": "interval",
          "type": "uint256"
        },
        {
          "internalType": "uint256",
          "name": "lastDonation",
          "type": "uint256"
        },
        {
          "internalType": "bool",
          "name": "active",
          "type": "bool"
        }
      ],
      "stateMutability": "view",
      "type": "function"
    },
    {
      "inputs": [
        {
          "internalType": "uint256",
          "name": "_charityId",
          "type": "uint256"
        }
      ],
      "name": "releaseFunds",
      "outputs": [],
      "stateMutability": "nonpayable",
      "type": "function"
    },
    {
      "inputs": [
        {
          "internalType": "bytes32",
          "name": "role",
          "type": "bytes32"
        },
        {
          "internalType": "address",
          "name": "callerConfirmation",
          "type": "address"
        }
      ],
      "name": "renounceRole",
      "outputs": [],
      "stateMutability": "nonpayable",
      "type": "function"
    },
    {
      "inputs": [
        {
          "internalType": "bytes32",
          "name": "role",
          "type": "bytes32"
        },
        {
          "internalType": "address",
          "name": "account",
          "type": "address"
        }
      ],
      "name": "revokeRole",
      "outputs": [],
      "stateMutability": "nonpayable",
      "type": "function"
    },
    {
      "inputs": [
        {
          "internalType": "uint256",
          "name": "_newThreshold",
          "type": "uint256"
        }
      ],
      "name": "setNFTThreshold",
      "outputs": [],
      "stateMutability": "nonpayable",
      "type": "function"
    },
    {
      "inputs": [
        {
          "internalType": "uint256",
          "name": "_newFeeBps",
          "type": "uint256"
        }
      ],
      "name": "setPlatformFee",
      "outputs": [],
      "stateMutability": "nonpayable",
      "type": "function"
    },
    {
      "inputs": [
        {
          "internalType": "uint256",
          "name": "_newRate",
          "type": "uint256"
        }
      ],
      "name": "setVibeRewardRate",
      "outputs": [],
      "stateMutability": "nonpayable",
      "type": "function"
    },
    {
      "inputs": [
        {
          "internalType": "bytes4",
          "name": "interfaceId",
          "type": "bytes4"
        }
      ],
      "name": "supportsInterface",
      "outputs": [
        {
          "internalType": "bool",
          "name": "",
          "type": "bool"
        }
      ],
      "stateMutability": "view",
      "type": "function"
    },
    {
      "inputs": [
        {
          "internalType": "address",
          "name": "",
          "type": "address"
        }
      ],
      "name": "totalDonatedByDonor",
      "outputs": [
        {
          "internalType": "uint256",
          "name": "",
          "type": "uint256"
        }
      ],
      "stateMutability": "view",
      "type": "function"
    },
    {
      "inputs": [],
      "name": "totalDonationsValue",
      "outputs": [
        {
          "internalType": "uint256",
          "name": "",
          "type": "uint256"
        }
      ],
      "stateMutability": "view",
      "type": "function"
    },
    {
      "inputs": [],
      "name": "totalPlatformFees",
      "outputs": [
        {
          "internalType": "uint256",
          "name": "",
          "type": "uint256"
        }
      ],
      "stateMutability": "view",
      "type": "function"
    },
    {
      "inputs": [],
      "name": "vibeRewardRate",
      "outputs": [
        {
          "internalType": "uint256",
          "name": "",
          "type": "uint256"
        }
      ],
      "stateMutability": "view",
      "type": "function"
    },
    {
      "inputs": [],
      "name": "vibeToken",
      "outputs": [
        {
          "internalType": "contract VibeToken",
          "name": "",
          "type": "address"
        }
      ],
      "stateMutability": "view",
      "type": "function"
    },
    {
      "stateMutability": "payable",
      "type": "receive"
    }
  ],
  "bytecode": "0x6080346200023257601f620033fe38819003918201601f1916830191906001600160401b0383118484101762000237578160a09285926040958652833981010312620002325762000050826200024d565b6200005e602084016200024d565b926200006c8382016200024d565b9362000089608062000081606085016200024d565b93016200024d565b6001805560fa600555678ac7230489e80000600755670de0b6b3a7640000600855926001600160a01b03908116918215620001fb578116958615620001c25781169283156200017e57169182156200013a576200012b949560018060a01b0319928360025416176002558260035416176003558160045416176004556006541617600655620001188162000262565b506200012481620002e2565b5062000384565b5051612fbc9081620004228239f35b845162461bcd60e51b815260206004820152601560248201527f496e76616c69642066656520636f6c6c6563746f7200000000000000000000006044820152606490fd5b855162461bcd60e51b815260206004820152601460248201527f496e76616c6964204e465420636f6e74726163740000000000000000000000006044820152606490fd5b855162461bcd60e51b815260206004820152601260248201527124b73b30b634b2102b24a122903a37b5b2b760711b6044820152606490fd5b855162461bcd60e51b815260206004820152601060248201526f496e76616c696420726567697374727960801b6044820152606490fd5b600080fd5b634e487b7160e01b600052604160045260246000fd5b51906001600160a01b03821682036200023257565b6001600160a01b031660008181527fad3228b676f7d3cd4284a5443f17f1962b36e491b30a40b2405849e597ba5fb5602052604081205490919060ff16620002de57818052816020526040822081835260205260408220600160ff198254161790553391600080516020620033de8339815191528180a4600190565b5090565b6001600160a01b031660008181527f7d7ffb7a348e1c6a02869081a26547b49160dd3df72d1d75a570eb9b698292ec60205260408120549091907fa49807205ce4d355092ef5a8a18f56e8913cf4a201fbe287825b095693c217759060ff166200037f57808352826020526040832082845260205260408320600160ff19825416179055600080516020620033de833981519152339380a4600190565b505090565b6001600160a01b031660008181527fee57cd81e84075558e8fcc182a1f4393f91fc97f963a136e66b7f949a62f319f60205260408120549091907f97667070c54ef182b0f5858b034beac1b6f3089aa2d3188bb1e8929f4fa9b9299060ff166200037f57808352826020526040832082845260205260408320600160ff19825416179055600080516020620033de833981519152339380a460019056fe6080604052600436101561001b575b361561001957600080fd5b005b60003560e01c8062c766fe14611dac57806301ffc9a714611d565780630ed8efb514611c4457806312e8e2c314611bb257806315a4640614611b3a57806322dcd13e14611b1c578063248a9ca314611aed5780632abfab4d14611acf5780632f2ff15d14611a90578063306b439414611a7257806336568abe14611a2b5780634395e1bf146119e1578063488e6fa1146118fb5780634d68282f1461178757806352d02bba146116fe578063551512de1461158657806359d06eba146115105780635cbbb574146114d75780635d47f3211461146f57806364f5c9701461144657806365cf23b9146113ee57806372ac09d91461132257806375b238fc146112e757806391d148541461129a578063a217fddf1461127e578063a24ba8bf1461122a578063aab30e731461105f578063ab83f98a14610c33578063abd51a3614610bf9578063ae56638a14610bd0578063b0e6bc0014610bb2578063bdb57c1e14610b94578063c415b95c14610b6b578063cd7c7ce814610b17578063d3631fa514610af9578063d547741f14610aba578063d55be8c614610a9d578063e2d5dcb814610a55578063ef07a81f14610962578063efe5a15d14610939578063f00511ef14610328578063f5b541a6146102ed578063f8626af814610260578063fa0bf849146102425763fa5692740361000e573461023d57600036600319011261023d57602060405173036cbd53842c5426634e7929541ec2318f3dcf7e8152f35b600080fd5b3461023d57600036600319011261023d576020601454604051908152f35b3461023d57602036600319011261023d5760048035600090815260096020908152604091829020805460018201546002830154600384015496840154600585015460069095015487516001600160a01b039586168152968701939093529585015294166060830152608082019290925260a081019190915260ff909116151560c082015260e090f35b0390f35b3461023d57600036600319011261023d5760206040517f97667070c54ef182b0f5858b034beac1b6f3089aa2d3188bb1e8929f4fa9b9298152f35b602036600319011261023d5761033c61227a565b6004356000526012602052604060002060ff600682015416156108f45761036c6005820154600483015490612367565b42106108c35760018060a01b036002541690600181019182546020604051809381936323013fc760e21b8352600483015260249485915afa9081156108b75760009161087d575b501561083957600f546003830180549194916001600160a01b031690816107fd575050600283015434036107c257549060006127106103f460055434612354565b04918234033481116107ad5760029085600052600e60205261041c6040600020918254612367565b81550161042a848254612367565b9055670de0b6b3a764000061044160075434612354565b049081610740575b600f549061045682612374565b600f556104a0604051610468816121bc565b3381528760208201523460408201528560608201524260808201528460a08201528560c0820152838652600960205260408620612383565b338452600a6020526104b582604086206123f9565b858452600b6020526104ca82604086206123f9565b338452600c602052604084206104e1348254612367565b9055338452600d6020526040842086855260205260408420610504348254612367565b905561051234601154612367565b60115561052185601054612367565b6010556002546001600160a01b0316803b156107115784809160646040518094819363daf6db8b60e01b83528c600484015234888401528160448401525af180156107355790859161071d575b505060085434101561062a575b5092600080516020612f6783398151915292856060936105ea979660405191348352846020840152604083015242868301527feff799a2aa76359bdda69d7a8a17bdbff085770fb3d267847cbeeae0a38c370360803393a46040519182526020820152426040820152a1612a41565b6005429101556040519081524260208201527f5e588a3a13a1905885478d769999dcdcbe9f8d36b30de400e99420db1596bf2c604060043592a260018055005b602086606460018060a01b0360045416938760405195869485936378ddb45f60e11b85523360048601528401523460448401525af18491816106e4575b5095606093819693600080516020612f6783398151915296936105ea99610697575b50939650935095509261057b565b818552600960205260066040862001600160ff19825416179055604051908152817f055e34067993de700e7f718f190fdccc92a27695bb9068504a1a44258577f8eb60203393a38b610689565b9091506020813d602011610715575b8161070060209383612208565b810103126107115751906060610667565b8480fd5b3d91506106f3565b610726906121d8565b61073157838961056e565b8380fd5b6040513d87823e3d90fd5b6003549091906001600160a01b0316803b1561023d57604051634d24848760e11b815233600482015260248101839052906000908290604490829084905af19081610799575b5061079357508190610449565b90610449565b6107a49194506121d8565b60009288610786565b50634e487b7160e01b60009081526011600452fd5b60405162461bcd60e51b81526020600482015260148184015273125b98dbdc9c9958dd0811551208185b5bdd5b9d60621b6044820152606490fd5b9091610834935061082060018060a01b038654166002870194855491309161229d565b54915490546001600160a01b031691612433565b6105ea565b606490601a6040519162461bcd60e51b8352602060048401528201527f43686172697479206e6f206c6f6e6765722076657269666965640000000000006044820152fd5b90506020813d6020116108af575b8161089860209383612208565b8101031261023d576108a99061222a565b846103b3565b3d915061088b565b6040513d6000823e3d90fd5b60405162461bcd60e51b8152602060048201526009602482015268546f6f206561726c7960b81b6044820152606490fd5b60405162461bcd60e51b815260206004820152601d60248201527f526563757272696e6720646f6e6174696f6e206e6f74206163746976650000006044820152606490fd5b3461023d57600036600319011261023d576003546040516001600160a01b039091168152602090f35b3461023d57602036600319011261023d57600060c0604051610983816121bc565b8281528260208201528260408201528260608201528260808201528260a08201520152600435600052600960205260e060406000206040516109c4816121bc565b60018060a01b03918281541692838352600182015490602084019182526002830154604085019081528160038501541690606086019182526004850154936080870194855260c060ff600660058901549860a08b01998a5201541697019615158752604051978852516020880152516040870152511660608501525160808401525160a083015251151560c0820152f35b3461023d57604036600319011261023d576001600160a01b03610a76611f1f565b16600052600d60205260406000206024356000526020526020604060002054604051908152f35b3461023d57600036600319011261023d5760206040516103e88152f35b3461023d57604036600319011261023d57610019600435610ad9611f09565b90806000526000602052610af460016040600020015461202e565b6120d2565b3461023d57600036600319011261023d576020601054604051908152f35b3461023d57602036600319011261023d577f2d6d16dea6ef7fc968f2380c534da2fbb1a0e035ffa1ca8e018b2948950aa4716040600435610b56611fb4565b600754908060075582519182526020820152a1005b3461023d57600036600319011261023d576006546040516001600160a01b039091168152602090f35b3461023d57600036600319011261023d576020600754604051908152f35b3461023d57600036600319011261023d576020600854604051908152f35b3461023d57600036600319011261023d576002546040516001600160a01b039091168152602090f35b3461023d57602036600319011261023d576001600160a01b03610c1a611f1f565b16600052600c6020526020604060002054604051908152f35b60208060031936011261023d57600435610c4b61227a565b610c56341515612147565b6002546040516323013fc760e21b8152600481018390526001600160a01b039184908290602490829086165afa80156108b757600090611029575b610c9b9150612237565b600092612710610cad60055434612354565b04918234033481116110135760029085600052600e8452610cd46040600020918254612367565b815501610ce2848254612367565b9055670de0b6b3a7640000610cf960075434612354565b049081610faf575b600f5490610d0e82612374565b600f55610d56604051610d20816121bc565b33815287868201523460408201528860608201524260808201528460a08201528860c08201528389526009865260408920612383565b338752600a8452610d6a82604089206123f9565b858752600b8452610d7e82604089206123f9565b338752600c845260408720610d94348254612367565b9055338752600d845260408720868852845260408720610db5348254612367565b9055610dc334601154612367565b601155610dd285601054612367565b601055868160025416803b15610fab5781809160646040518094819363daf6db8b60e01b83528d60048401523460248401528160448401525af18015610fa057610f88575b5050600854341015610e96575b509460609285600080516020612f678339815191529593610e9098604051913483528585840152604083015242878301527feff799a2aa76359bdda69d7a8a17bdbff085770fb3d267847cbeeae0a38c370360803393a4604051928352820152426040820152a1612a41565b60018055005b838791600454166064604051809481936378ddb45f60e11b83523360048401528b60248401523460448401525af1879181610f47575b50600080516020612f678339815191529593610e909893606096938993610efc575b509398509395505092610e24565b8186526009855260066040872001600160ff19825416179055604051908152817f055e34067993de700e7f718f190fdccc92a27695bb9068504a1a44258577f8eb863393a38a610eee565b9091508481813d8311610f81575b610f5f8183612208565b81010312610f7d575190600080516020612f67833981519152610ecc565b8780fd5b503d610f55565b610f91906121d8565b610f9c578688610e17565b8680fd5b6040513d84823e3d90fd5b5080fd5b908160035416803b1561023d57604051634d24848760e11b815233600482015260248101839052906000908290604490829084905af19081610fff575b50610ff957508490610d01565b90610d01565b61100a9197506121d8565b60009587610fec565b634e487b7160e01b600052601160045260246000fd5b508381813d8311611058575b61103f8183612208565b8101031261023d57611053610c9b9161222a565b610c91565b503d611035565b3461023d57608036600319011261023d5760043560243561107e611f35565b60643582156111f0576201518081106111b6576002546040516323013fc760e21b8152600481018690526001600160a01b039360209283908390602490829089165afa9182156108b75760009261117a575b506110dd61113392612237565b601454946110ea86612374565b601455604051916110fa836121bc565b33835288858401528760408401521660608201528360808201524260a0820152600160c082015284600052601283526040600020612383565b33600052601381526111498360406000206123f9565b6040519384528301527fc7c1d72255f67a688b660cd3963387e3f91c7f74543f79040678bd7f7ae9b9de60403393a4005b91508282813d83116111af575b6111918183612208565b8101031261023d576110dd6111a86111339361222a565b92506110d0565b503d611187565b60405162461bcd60e51b8152602060048201526012602482015271125b9d195c9d985b081d1bdbc81cda1bdc9d60721b6044820152606490fd5b60405162461bcd60e51b81526020600482015260126024820152710416d6f756e74206d757374206265203e20360741b6044820152606490fd5b3461023d57602036600319011261023d577fe0e31d83f8c86063a9110223c72002605ec779e2e4da2b66eff1a22e92c7e5276040600435611269611fb4565b600854908060085582519182526020820152a1005b3461023d57600036600319011261023d57602060405160008152f35b3461023d57604036600319011261023d576112b3611f09565b600435600052600060205260406000209060018060a01b0316600052602052602060ff604060002054166040519015158152f35b3461023d57600036600319011261023d5760206040517fa49807205ce4d355092ef5a8a18f56e8913cf4a201fbe287825b095693c217758152f35b3461023d57602036600319011261023d57600060a06040516113438161218a565b8281528260208201528260408201528260608201528260808201520152600435600052600e60205260c0604060002060405161137e8161218a565b8154918282526001810154602083019081526002820154604084019081526003830154916060850192835260a0600560ff600487015416956080880196151587520154950194855260405195865251602086015251604085015251606084015251151560808301525160a0820152f35b3461023d57604036600319011261023d57611407611f1f565b6001600160a01b031660009081526013602052604090208054602435919082101561023d5760209161143891611f86565b90546040519160031b1c8152f35b3461023d57600036600319011261023d576004546040516001600160a01b039091168152602090f35b3461023d57602036600319011261023d57600435600052600e60205260c060406000208054906001810154906002810154600382015490600560ff600485015416930154936040519586526020860152604085015260608401521515608083015260a0820152f35b3461023d57604036600319011261023d57602435600435600052600b6020526040600020805482101561023d5760209161143891611f86565b3461023d5760208060031936011261023d57600435600052600b8152604060002090604051908181845491828152019360005281600020916000905b82821061156f576102e98561156381890382612208565b60405191829182611f4b565b83548652948501946001938401939091019061154c565b3461023d57606036600319011261023d5761159f611f1f565b6024356115aa611f35565b916115b3611fb4565b6001600160a01b038381169182156116c55716928361165157600080808581945af16115dd612b9f565b5015611616577f3ab9db27a4cdd8c603a752b62d5fbd93b4b3509fe2596708e9688e42bbac3576916040915b82519182526020820152a2005b60405162461bcd60e51b8152602060048201526013602482015272115512081d1c985b9cd9995c8819985a5b1959606a1b6044820152606490fd5b6040805163a9059cbb60e01b60208201526001600160a01b039092166024830152604482018490527f3ab9db27a4cdd8c603a752b62d5fbd93b4b3509fe2596708e9688e42bbac357693909290916116c0906116ba81606481015b03601f198101835282612208565b866122f8565b611609565b60405162461bcd60e51b8152602060048201526011602482015270125b9d985b1a59081c9958da5c1a595b9d607a1b6044820152606490fd5b3461023d57602036600319011261023d5760048035600090815260126020908152604091829020805460018201546002830154600384015496840154600585015460069095015487516001600160a01b039586168152968701939093529585015294166060830152608082019290925260a081019190915260ff909116151560c082015260e090f35b3461023d57602036600319011261023d576004356117a361227a565b80600052600e6020526117c160ff6004604060002001541615612b5a565b60025460405163fd67db8160e01b81526004810183905290600090829060249082906001600160a01b03165afa9081156108b7576000916118d8575b506101c08101516101e082015164e8d4a51000908181029181830414901517156110135761182a91612367565b610160820151119061018082159101519182151592836118cd575b5081906118c6575b1561185b57610e9092612bcf565b60405162461bcd60e51b815260206004820152603860248201527f43616e6e6f742072656c656173653a20676f616c206e6f74207265616368656460448201527f20616e6420646561646c696e65206e6f742070617373656400000000000000006064820152608490fd5b508161184d565b421015925084611845565b6118f591503d806000833e6118ed8183612208565b81019061287e565b826117fd565b3461023d57602036600319011261023d57600435600081815260126020526040902080546001600160a01b031633036119a757600601805460ff81161561196e5760ff191690557ffcfe4f6f3ac95557fd511f5b7864ebaa11afd9e53c07553bc4c0876bac712bc46020604051428152a2005b60405162461bcd60e51b8152602060048201526011602482015270105b1c9958591e4818d85b98d95b1b1959607a1b6044820152606490fd5b60405162461bcd60e51b81526020600482015260126024820152712737ba103237b730ba34b7b71037bbb732b960711b6044820152606490fd5b3461023d57604036600319011261023d576119fa611f1f565b6001600160a01b03166000908152600a602052604090208054602435919082101561023d5760209161143891611f86565b3461023d57604036600319011261023d57611a44611f09565b336001600160a01b03821603611a6057610019906004356120d2565b60405163334bd91960e11b8152600490fd5b3461023d57600036600319011261023d576020601154604051908152f35b3461023d57604036600319011261023d57610019600435611aaf611f09565b90806000526000602052611aca60016040600020015461202e565b612054565b3461023d57600036600319011261023d576020600f54604051908152f35b3461023d57602036600319011261023d5760043560005260006020526020600160406000200154604051908152f35b3461023d57600036600319011261023d576020600554604051908152f35b3461023d5760208060031936011261023d576001600160a01b03611b5c611f1f565b16600052600a8152604060002090604051908181845491828152019360005281600020916000905b828210611b9b576102e98561156381890382612208565b835486529485019460019384019390910190611b84565b3461023d57602036600319011261023d57600435611bce611fb4565b6103e88111611c105760407fd347e206f25a89b917fc9482f1a2d294d749baa4dc9bde7fb495ee11fe49164391600554908060055582519182526020820152a1005b60405162461bcd60e51b815260206004820152600c60248201526b08ccaca40e8dede40d0d2ced60a31b6044820152606490fd5b3461023d57606036600319011261023d57600435611c60611f09565b604435611c6b61227a565b611c76811515612147565b6001600160a01b03928284168015611d2157602060249560025416604051968780926323013fc760e21b82528660048301525afa9485156108b757600095611cd9575b5082611cd491611ccb610e9097612237565b3090339061229d565b612433565b94506020853d8211611d19575b81611cf360209383612208565b8101031261023d5782611cd491611ccb611d0f610e909861222a565b9750509150611cb9565b3d9150611ce6565b60405162461bcd60e51b815260206004820152600d60248201526c24b73b30b634b2103a37b5b2b760991b6044820152606490fd5b3461023d57602036600319011261023d5760043563ffffffff60e01b811680910361023d57602090637965db0b60e01b8114908115611d9b575b506040519015158152f35b6301ffc9a760e01b14905082611d90565b3461023d57602036600319011261023d57600435611dc8611fb4565b60025460405163fd67db8160e01b81526004810183905290600090829060249082906001600160a01b03165afa9081156108b757600091611eee575b5081600052600e60205260ff6004604060002001541615611eb05761018001518015159081611ea5575b5015611e60577f1a1048a50d8b3dd4fca52505bd7b6d3bf70a731eebe8f6cbabfdfd0083faf3cb6020604051428152a2005b60405162461bcd60e51b815260206004820152601760248201527f446561646c696e65206e6f7420796574207061737365640000000000000000006044820152606490fd5b905042101582611e2e565b60405162461bcd60e51b8152602060048201526016602482015275119d5b991cc81b9bdd081e595d081c995b19585cd95960521b6044820152606490fd5b611f0391503d806000833e6118ed8183612208565b82611e04565b602435906001600160a01b038216820361023d57565b600435906001600160a01b038216820361023d57565b604435906001600160a01b038216820361023d57565b6020908160408183019282815285518094520193019160005b828110611f72575050505090565b835185529381019392810192600101611f64565b8054821015611f9e5760005260206000200190600090565b634e487b7160e01b600052603260045260246000fd5b3360009081527f7d7ffb7a348e1c6a02869081a26547b49160dd3df72d1d75a570eb9b698292ec60205260409020547fa49807205ce4d355092ef5a8a18f56e8913cf4a201fbe287825b095693c217759060ff16156120105750565b6044906040519063e2517d3f60e01b82523360048301526024820152fd5b80600052600060205260406000203360005260205260ff60406000205416156120105750565b9060009180835282602052604083209160018060a01b03169182845260205260ff604084205416156000146120cd57808352826020526040832082845260205260408320600160ff198254161790557f2f8788117e7eff1d82e926ec794901d17c78024a50270940304540a733656f0d339380a4600190565b505090565b9060009180835282602052604083209160018060a01b03169182845260205260ff6040842054166000146120cd5780835282602052604083208284526020526040832060ff1981541690557ff6391f5c32d9c69d2a47ea670b442974b53935d1edc7fd64eb21e047a839171b339380a4600190565b1561214e57565b60405162461bcd60e51b81526020600482015260146024820152730446f6e6174696f6e206d757374206265203e20360641b6044820152606490fd5b60c0810190811067ffffffffffffffff8211176121a657604052565b634e487b7160e01b600052604160045260246000fd5b60e0810190811067ffffffffffffffff8211176121a657604052565b67ffffffffffffffff81116121a657604052565b6040810190811067ffffffffffffffff8211176121a657604052565b90601f8019910116810190811067ffffffffffffffff8211176121a657604052565b5190811515820361023d57565b1561223e57565b60405162461bcd60e51b815260206004820152601460248201527310da185c9a5d1e481b9bdd081d995c9a599a595960621b6044820152606490fd5b60026001541461228b576002600155565b604051633ee5aeb560e01b8152600490fd5b6040516323b872dd60e01b60208201526001600160a01b03928316602482015292909116604483015260648083019390935291815260a081019181831067ffffffffffffffff8411176121a6576122f6926040526122f8565b565b906000602091828151910182855af1156108b7576000513d61234b57506001600160a01b0381163b155b6123295750565b604051635274afe760e01b81526001600160a01b039091166004820152602490fd5b60011415612322565b8181029291811591840414171561101357565b9190820180921161101357565b60001981146110135760010190565b600660c09160018060a01b03808551166bffffffffffffffffffffffff60a01b908184541617835560208601516001840155604086015160028401556003830191606087015116908254161790556080840151600482015560a0840151600582015501910151151560ff80198354169116179055565b8054680100000000000000008110156121a65761241b91600182018155611f86565b819291549060031b91821b91600019901b1916179055565b909291926005549361271061244a60009684612354565b0491828103908082116127d257848752602090600e82526040938489209360018060a01b038092169485156000146127ab576124896002928254612367565b815501612497878254612367565b90555b670de0b6b3a76400006124af60075484612354565b048061274d575b600f54916124c383612374565b600f5561250887516124d4816121bc565b3381528a8782015285898201528760608201524260808201528360a08201528c60c0820152848d5260098752888d20612383565b338b52600a855261251b83888d206123f9565b888b52600b855261252e83888d206123f9565b338b52600c8552868b20612543858254612367565b9055338b52600d8552868b20898c528552868b20612562858254612367565b905561257084601154612367565b60115561257f88601054612367565b6010558a8160025416803b15610fab5781809160648d8c51948593849263daf6db8b60e01b845260048401528b60248401528d60448401525af180156127435761272b575b505060085484101561263d575b506122f6989950600080516020612f6783398151915296949286949289926060985192835285858401528683015242888301527feff799a2aa76359bdda69d7a8a17bdbff085770fb3d267847cbeeae0a38c370360803393a482519384528301524290820152a1612a41565b848b916004541660648b8a5194859384926378ddb45f60e11b845233600485015260248401528960448401525af18b91816126f8575b50928992600080516020612f67833981519152999795926122f69c9d8a60609b99976126ae575b5050509250929496509294968a99506125d1565b818560069352600989522001600160ff198254161790558751908152827f055e34067993de700e7f718f190fdccc92a27695bb9068504a1a44258577f8eb873393a338808861269a565b9091508581813d8311612724575b6127108183612208565b8101031261272057519089612673565b8b80fd5b503d612706565b612734906121d8565b61273f578a386125c4565b8a80fd5b89513d84823e3d90fd5b8160035416803b1561273f578651634d24848760e11b815233600482015260248101839052908b908290604490829084905af19081612798575b506127935750886124b6565b6124b6565b6127a4909b919b6121d8565b9938612787565b6003916127bd60018301918254612367565b9055016127cb878254612367565b905561249a565b634e487b7160e01b87526011600452602487fd5b67ffffffffffffffff81116121a657601f01601f191660200190565b60005b8381106128155750506000910152565b8181015183820152602001612805565b81601f8201121561023d57805161283b816127e6565b926128496040519485612208565b8184526020828401011161023d576128679160208085019101612802565b90565b51906001600160a01b038216820361023d57565b6020808284031261023d57815167ffffffffffffffff9283821161023d57019061022093848382031261023d57604051948501858110858211176121a657604052825184811161023d57816128d4918501612825565b85528183015184811161023d57816128ed918501612825565b82860152604083015184811161023d5781612909918501612825565b604086015261291a6060840161286a565b60608601526080830151608086015260a0830151600481101561023d5760a086015260c083015160c086015260e083015160e086015261010061295e81850161286a565b9086015261012080840151908601526101408084015190860152610160808401519086015261018080840151908601526101a061299c81850161222a565b908601526101c080840151908601526101e0808401519086015261020092838101519085821161023d570181601f8201121561023d578051948086116121a6578560051b90604051966129f186840189612208565b875284808801928401019380851161023d57858401925b858410612a1c575050505050505082015290565b835183811161023d578791612a36848480948a0101612825565b815201930192612a08565b60025460405163fd67db8160e01b8152600481018390526000918290829060249082906001600160a01b03165afa908115610fa0578291612b40575b50828252600e60205260ff600460408420015416612b3b578190826101c08201516101e08301519164e8d4a5100092838102938185041490151715612b27575090612ac791612367565b6101608201511115612b1e575b61018001518015159081612b13575b50612b0a575b808115612b03575b612afa57505050565b6122f692612bcf565b5081612af1565b60019150612ae9565b905042101538612ae3565b60019150612ad4565b634e487b7160e01b81526011600452602490fd5b505050565b612b5491503d8084833e6118ed8183612208565b38612a7d565b15612b6157565b60405162461bcd60e51b8152602060048201526016602482015275119d5b991cc8185b1c9958591e481c995b19585cd95960521b6044820152606490fd5b3d15612bca573d90612bb0826127e6565b91612bbe6040519384612208565b82523d6000602084013e565b606090565b9160018060a01b03918260025416916040805194859463fd67db8160e01b865287600487015285602460009788935afa958615612ecc578596612eb0575b50868552602092600e8452828620946004860160018154612c3160ff821615612b5a565b60ff1916179055426005870155868654848a82612e48575b50505050600286015480612de4575b5092612d1e927f2baf1496752ee0939f50c2fdde1558e456ed39d3923bd1006334cdb2bade082e989795928795600160c09901978a89548581612dce575b505050600388015480612dba575b50508080612db2575b15612d3357505060608251612cc1816121ec565b601c81527f476f616c2072656163686564206265666f726520646561646c696e650000000085820152955b5496549801511690805197889687528387015285015260a0606085015282519283918260a08701528686019101612802565b426080830152601f01601f19168101030190a2565b159081612daa575b5015612d6f5760608251612d4e816121ec565b600f81526e111958591b1a5b99481c185cdcd959608a1b8582015295612cec565b60608251612d7c816121ec565b8481527f476f616c207265616368656420616e6420646561646c696e65207061737365648582015295612cec565b905038612d3b565b508115612cad565b612dc8908560065416612ed6565b38612ca4565b6060612ddc93015116612ed6565b8a3885612c96565b878080809387600654165af1612df8612b9f565b5015612e045738612c58565b835162461bcd60e51b815260048101869052601760248201527f45544820666565207472616e73666572206661696c65640000000000000000006044820152606490fd5b83928392606084930151165af1612e5d612b9f565b5015612e6c578638848a612c49565b835162461bcd60e51b815260048101869052601e60248201527f455448207472616e7366657220746f2063686172697479206661696c656400006044820152606490fd5b612ec59196503d8087833e6118ed8183612208565b9438612c0d565b82513d87823e3d90fd5b60405163a9059cbb60e01b60208281019182526001600160a01b0390931660248301526044820193909352600090612f1181606481016116ac565b5173036cbd53842c5426634e7929541ec2318f3dcf7e9382855af1156108b7576000513d612f5d5750803b155b612f455750565b60249060405190635274afe760e01b82526004820152fd5b60011415612f3e56fef1d6c8ee14081f641e2073a1064d870f135f1001a301c6b14a7b9655672fec11a264697066735822122026547c014981c0ba02d2b1ee2737d8fb5ca2088e3c3af880b85b8cbd150120c564736f6c634300081400332f8788117e7eff1d82e926ec794901d17c78024a50270940304540a733656f0d",
  "linkReferences": {},
  "deployedLinkReferences": {}
}