{
  "_format": "hh-sol-artifact-1",
  "contractName": "DonationManager",
  "sourceName": "contracts/DonationManager.sol",
  "abi": [
    {
      "inputs": [
        {
          "internalType": "address",
          "name": "_charityRegistry",
          "type": "address"
        },
        {
          "internalType": "address",
          "name": "_vibeToken",
          "type": "address"
        },
        {
          "internalType": "address",
          "name": "_impactNFT",
          "type": "address"
        },
        {
          "internalType": "address",
          "name": "_feeCollector",
          "type": "address"
        },
        {
          "internalType": "address",
          "name": "_admin",
          "type": "address"
        }
      ],
      "stateMutability": "nonpayable",
      "type": "constructor"
    },
    {
      "inputs": [],
      "name": "AccessControlBadConfirmation",
      "type": "error"
    },
    {
      "inputs": [
        {
          "internalType": "address",
          "name": "account",
          "type": "address"
        },
        {
          "internalType": "bytes32",
          "name": "neededRole",
          "type": "bytes32"
        }
      ],
      "name": "AccessControlUnauthorizedAccount",
      "type": "error"
    },
    {
      "inputs": [],
      "name": "ReentrancyGuardReentrantCall",
      "type": "error"
    },
    {
      "inputs": [
        {
          "internalType": "address",
          "name": "token",
          "type": "address"
        }
      ],
      "name": "SafeERC20FailedOperation",
      "type": "error"
    },
    {
      "anonymous": false,
      "inputs": [
        {
          "indexed": true,
          "internalType": "uint256",
          "name": "donationId",
          "type": "uint256"
        },
        {
          "indexed": true,
          "internalType": "address",
          "name": "donor",
          "type": "address"
        },
        {
          "indexed": true,
          "internalType": "uint256",
          "name": "charityId",
          "type": "uint256"
        },
        {
          "indexed": false,
          "internalType": "uint256",
          "name": "amount",
          "type": "uint256"
        },
        {
          "indexed": false,
          "internalType": "address",
          "name": "token",
          "type": "address"
        },
        {
          "indexed": false,
          "internalType": "uint256",
          "name": "vibeRewarded",
          "type": "uint256"
        },
        {
          "indexed": false,
          "internalType": "uint256",
          "name": "timestamp",
          "type": "uint256"
        }
      ],
      "name": "DonationMade",
      "type": "event"
    },
    {
      "anonymous": false,
      "inputs": [
        {
          "indexed": true,
          "internalType": "address",
          "name": "token",
          "type": "address"
        },
        {
          "indexed": false,
          "internalType": "uint256",
          "name": "amount",
          "type": "uint256"
        },
        {
          "indexed": false,
          "internalType": "address",
          "name": "to",
          "type": "address"
        }
      ],
      "name": "EmergencyWithdrawal",
      "type": "event"
    },
    {
      "anonymous": false,
      "inputs": [
        {
          "indexed": false,
          "internalType": "uint256",
          "name": "amount",
          "type": "uint256"
        },
        {
          "indexed": false,
          "internalType": "address",
          "name": "token",
          "type": "address"
        },
        {
          "indexed": false,
          "internalType": "uint256",
          "name": "timestamp",
          "type": "uint256"
        }
      ],
      "name": "FeeCollected",
      "type": "event"
    },
    {
      "anonymous": false,
      "inputs": [
        {
          "indexed": true,
          "internalType": "uint256",
          "name": "donationId",
          "type": "uint256"
        },
        {
          "indexed": true,
          "internalType": "address",
          "name": "donor",
          "type": "address"
        },
        {
          "indexed": false,
          "internalType": "uint256",
          "name": "tokenId",
          "type": "uint256"
        }
      ],
      "name": "NFTMinted",
      "type": "event"
    },
    {
      "anonymous": false,
      "inputs": [
        {
          "indexed": false,
          "internalType": "uint256",
          "name": "oldThreshold",
          "type": "uint256"
        },
        {
          "indexed": false,
          "internalType": "uint256",
          "name": "newThreshold",
          "type": "uint256"
        }
      ],
      "name": "NFTThresholdUpdated",
      "type": "event"
    },
    {
      "anonymous": false,
      "inputs": [
        {
          "indexed": false,
          "internalType": "uint256",
          "name": "oldFee",
          "type": "uint256"
        },
        {
          "indexed": false,
          "internalType": "uint256",
          "name": "newFee",
          "type": "uint256"
        }
      ],
      "name": "PlatformFeeUpdated",
      "type": "event"
    },
    {
      "anonymous": false,
      "inputs": [
        {
          "indexed": true,
          "internalType": "uint256",
          "name": "recurringId",
          "type": "uint256"
        },
        {
          "indexed": false,
          "internalType": "uint256",
          "name": "timestamp",
          "type": "uint256"
        }
      ],
      "name": "RecurringDonationCancelled",
      "type": "event"
    },
    {
      "anonymous": false,
      "inputs": [
        {
          "indexed": true,
          "internalType": "uint256",
          "name": "recurringId",
          "type": "uint256"
        },
        {
          "indexed": true,
          "internalType": "address",
          "name": "donor",
          "type": "address"
        },
        {
          "indexed": true,
          "internalType": "uint256",
          "name": "charityId",
          "type": "uint256"
        },
        {
          "indexed": false,
          "internalType": "uint256",
          "name": "amount",
          "type": "uint256"
        },
        {
          "indexed": false,
          "internalType": "uint256",
          "name": "interval",
          "type": "uint256"
        }
      ],
      "name": "RecurringDonationCreated",
      "type": "event"
    },
    {
      "anonymous": false,
      "inputs": [
        {
          "indexed": true,
          "internalType": "uint256",
          "name": "recurringId",
          "type": "uint256"
        },
        {
          "indexed": false,
          "internalType": "uint256",
          "name": "donationId",
          "type": "uint256"
        },
        {
          "indexed": false,
          "internalType": "uint256",
          "name": "timestamp",
          "type": "uint256"
        }
      ],
      "name": "RecurringDonationExecuted",
      "type": "event"
    },
    {
      "anonymous": false,
      "inputs": [
        {
          "indexed": true,
          "internalType": "bytes32",
          "name": "role",
          "type": "bytes32"
        },
        {
          "indexed": true,
          "internalType": "bytes32",
          "name": "previousAdminRole",
          "type": "bytes32"
        },
        {
          "indexed": true,
          "internalType": "bytes32",
          "name": "newAdminRole",
          "type": "bytes32"
        }
      ],
      "name": "RoleAdminChanged",
      "type": "event"
    },
    {
      "anonymous": false,
      "inputs": [
        {
          "indexed": true,
          "internalType": "bytes32",
          "name": "role",
          "type": "bytes32"
        },
        {
          "indexed": true,
          "internalType": "address",
          "name": "account",
          "type": "address"
        },
        {
          "indexed": true,
          "internalType": "address",
          "name": "sender",
          "type": "address"
        }
      ],
      "name": "RoleGranted",
      "type": "event"
    },
    {
      "anonymous": false,
      "inputs": [
        {
          "indexed": true,
          "internalType": "bytes32",
          "name": "role",
          "type": "bytes32"
        },
        {
          "indexed": true,
          "internalType": "address",
          "name": "account",
          "type": "address"
        },
        {
          "indexed": true,
          "internalType": "address",
          "name": "sender",
          "type": "address"
        }
      ],
      "name": "RoleRevoked",
      "type": "event"
    },
    {
      "anonymous": false,
      "inputs": [
        {
          "indexed": false,
          "internalType": "uint256",
          "name": "oldRate",
          "type": "uint256"
        },
        {
          "indexed": false,
          "internalType": "uint256",
          "name": "newRate",
          "type": "uint256"
        }
      ],
      "name": "VibeRewardRateUpdated",
      "type": "event"
    },
    {
      "inputs": [],
      "name": "ADMIN_ROLE",
      "outputs": [
        {
          "internalType": "bytes32",
          "name": "",
          "type": "bytes32"
        }
      ],
      "stateMutability": "view",
      "type": "function"
    },
    {
      "inputs": [],
      "name": "DEFAULT_ADMIN_ROLE",
      "outputs": [
        {
          "internalType": "bytes32",
          "name": "",
          "type": "bytes32"
        }
      ],
      "stateMutability": "view",
      "type": "function"
    },
    {
      "inputs": [],
      "name": "MAX_FEE_BPS",
      "outputs": [
        {
          "internalType": "uint256",
          "name": "",
          "type": "uint256"
        }
      ],
      "stateMutability": "view",
      "type": "function"
    },
    {
      "inputs": [],
      "name": "OPERATOR_ROLE",
      "outputs": [
        {
          "internalType": "bytes32",
          "name": "",
          "type": "bytes32"
        }
      ],
      "stateMutability": "view",
      "type": "function"
    },
    {
      "inputs": [],
      "name": "USDC_TOKEN",
      "outputs": [
        {
          "internalType": "address",
          "name": "",
          "type": "address"
        }
      ],
      "stateMutability": "view",
      "type": "function"
    },
    {
      "inputs": [
        {
          "internalType": "uint256",
          "name": "_recurringId",
          "type": "uint256"
        }
      ],
      "name": "cancelRecurringDonation",
      "outputs": [],
      "stateMutability": "nonpayable",
      "type": "function"
    },
    {
      "inputs": [
        {
          "internalType": "uint256",
          "name": "",
          "type": "uint256"
        },
        {
          "internalType": "uint256",
          "name": "",
          "type": "uint256"
        }
      ],
      "name": "charityDonations",
      "outputs": [
        {
          "internalType": "uint256",
          "name": "",
          "type": "uint256"
        }
      ],
      "stateMutability": "view",
      "type": "function"
    },
    {
      "inputs": [],
      "name": "charityRegistry",
      "outputs": [
        {
          "internalType": "contract CharityRegistry",
          "name": "",
          "type": "address"
        }
      ],
      "stateMutability": "view",
      "type": "function"
    },
    {
      "inputs": [
        {
          "internalType": "uint256",
          "name": "_charityId",
          "type": "uint256"
        },
        {
          "internalType": "uint256",
          "name": "_amount",
          "type": "uint256"
        },
        {
          "internalType": "address",
          "name": "_token",
          "type": "address"
        },
        {
          "internalType": "uint256",
          "name": "_interval",
          "type": "uint256"
        }
      ],
      "name": "createRecurringDonation",
      "outputs": [],
      "stateMutability": "nonpayable",
      "type": "function"
    },
    {
      "inputs": [
        {
          "internalType": "uint256",
          "name": "_charityId",
          "type": "uint256"
        },
        {
          "internalType": "address",
          "name": "_token",
          "type": "address"
        },
        {
          "internalType": "uint256",
          "name": "_amount",
          "type": "uint256"
        }
      ],
      "name": "donateERC20",
      "outputs": [],
      "stateMutability": "nonpayable",
      "type": "function"
    },
    {
      "inputs": [
        {
          "internalType": "uint256",
          "name": "_charityId",
          "type": "uint256"
        }
      ],
      "name": "donateETH",
      "outputs": [],
      "stateMutability": "payable",
      "type": "function"
    },
    {
      "inputs": [],
      "name": "donationCount",
      "outputs": [
        {
          "internalType": "uint256",
          "name": "",
          "type": "uint256"
        }
      ],
      "stateMutability": "view",
      "type": "function"
    },
    {
      "inputs": [
        {
          "internalType": "uint256",
          "name": "",
          "type": "uint256"
        }
      ],
      "name": "donations",
      "outputs": [
        {
          "internalType": "address",
          "name": "donor",
          "type": "address"
        },
        {
          "internalType": "uint256",
          "name": "charityId",
          "type": "uint256"
        },
        {
          "internalType": "uint256",
          "name": "amount",
          "type": "uint256"
        },
        {
          "internalType": "address",
          "name": "token",
          "type": "address"
        },
        {
          "internalType": "uint256",
          "name": "timestamp",
          "type": "uint256"
        },
        {
          "internalType": "uint256",
          "name": "vibeRewarded",
          "type": "uint256"
        },
        {
          "internalType": "bool",
          "name": "nftMinted",
          "type": "bool"
        }
      ],
      "stateMutability": "view",
      "type": "function"
    },
    {
      "inputs": [
        {
          "internalType": "address",
          "name": "",
          "type": "address"
        },
        {
          "internalType": "uint256",
          "name": "",
          "type": "uint256"
        }
      ],
      "name": "donorCharityTotal",
      "outputs": [
        {
          "internalType": "uint256",
          "name": "",
          "type": "uint256"
        }
      ],
      "stateMutability": "view",
      "type": "function"
    },
    {
      "inputs": [
        {
          "internalType": "address",
          "name": "",
          "type": "address"
        },
        {
          "internalType": "uint256",
          "name": "",
          "type": "uint256"
        }
      ],
      "name": "donorDonations",
      "outputs": [
        {
          "internalType": "uint256",
          "name": "",
          "type": "uint256"
        }
      ],
      "stateMutability": "view",
      "type": "function"
    },
    {
      "inputs": [
        {
          "internalType": "address",
          "name": "",
          "type": "address"
        },
        {
          "internalType": "uint256",
          "name": "",
          "type": "uint256"
        }
      ],
      "name": "donorRecurringDonations",
      "outputs": [
        {
          "internalType": "uint256",
          "name": "",
          "type": "uint256"
        }
      ],
      "stateMutability": "view",
      "type": "function"
    },
    {
      "inputs": [
        {
          "internalType": "address",
          "name": "_token",
          "type": "address"
        },
        {
          "internalType": "uint256",
          "name": "_amount",
          "type": "uint256"
        },
        {
          "internalType": "address",
          "name": "_to",
          "type": "address"
        }
      ],
      "name": "emergencyWithdraw",
      "outputs": [],
      "stateMutability": "nonpayable",
      "type": "function"
    },
    {
      "inputs": [
        {
          "internalType": "uint256",
          "name": "_recurringId",
          "type": "uint256"
        }
      ],
      "name": "executeRecurringDonation",
      "outputs": [],
      "stateMutability": "payable",
      "type": "function"
    },
    {
      "inputs": [],
      "name": "feeCollector",
      "outputs": [
        {
          "internalType": "address",
          "name": "",
          "type": "address"
        }
      ],
      "stateMutability": "view",
      "type": "function"
    },
    {
      "inputs": [
        {
          "internalType": "uint256",
          "name": "_charityId",
          "type": "uint256"
        }
      ],
      "name": "getCharityDonations",
      "outputs": [
        {
          "internalType": "uint256[]",
          "name": "",
          "type": "uint256[]"
        }
      ],
      "stateMutability": "view",
      "type": "function"
    },
    {
      "inputs": [
        {
          "internalType": "uint256",
          "name": "_donationId",
          "type": "uint256"
        }
      ],
      "name": "getDonation",
      "outputs": [
        {
          "components": [
            {
              "internalType": "address",
              "name": "donor",
              "type": "address"
            },
            {
              "internalType": "uint256",
              "name": "charityId",
              "type": "uint256"
            },
            {
              "internalType": "uint256",
              "name": "amount",
              "type": "uint256"
            },
            {
              "internalType": "address",
              "name": "token",
              "type": "address"
            },
            {
              "internalType": "uint256",
              "name": "timestamp",
              "type": "uint256"
            },
            {
              "internalType": "uint256",
              "name": "vibeRewarded",
              "type": "uint256"
            },
            {
              "internalType": "bool",
              "name": "nftMinted",
              "type": "bool"
            }
          ],
          "internalType": "struct DonationManager.Donation",
          "name": "",
          "type": "tuple"
        }
      ],
      "stateMutability": "view",
      "type": "function"
    },
    {
      "inputs": [
        {
          "internalType": "address",
          "name": "_donor",
          "type": "address"
        }
      ],
      "name": "getDonorDonations",
      "outputs": [
        {
          "internalType": "uint256[]",
          "name": "",
          "type": "uint256[]"
        }
      ],
      "stateMutability": "view",
      "type": "function"
    },
    {
      "inputs": [
        {
          "internalType": "bytes32",
          "name": "role",
          "type": "bytes32"
        }
      ],
      "name": "getRoleAdmin",
      "outputs": [
        {
          "internalType": "bytes32",
          "name": "",
          "type": "bytes32"
        }
      ],
      "stateMutability": "view",
      "type": "function"
    },
    {
      "inputs": [
        {
          "internalType": "bytes32",
          "name": "role",
          "type": "bytes32"
        },
        {
          "internalType": "address",
          "name": "account",
          "type": "address"
        }
      ],
      "name": "grantRole",
      "outputs": [],
      "stateMutability": "nonpayable",
      "type": "function"
    },
    {
      "inputs": [
        {
          "internalType": "bytes32",
          "name": "role",
          "type": "bytes32"
        },
        {
          "internalType": "address",
          "name": "account",
          "type": "address"
        }
      ],
      "name": "hasRole",
      "outputs": [
        {
          "internalType": "bool",
          "name": "",
          "type": "bool"
        }
      ],
      "stateMutability": "view",
      "type": "function"
    },
    {
      "inputs": [],
      "name": "impactNFT",
      "outputs": [
        {
          "internalType": "contract ImpactNFT",
          "name": "",
          "type": "address"
        }
      ],
      "stateMutability": "view",
      "type": "function"
    },
    {
      "inputs": [],
      "name": "nftThreshold",
      "outputs": [
        {
          "internalType": "uint256",
          "name": "",
          "type": "uint256"
        }
      ],
      "stateMutability": "view",
      "type": "function"
    },
    {
      "inputs": [],
      "name": "platformFeeBps",
      "outputs": [
        {
          "internalType": "uint256",
          "name": "",
          "type": "uint256"
        }
      ],
      "stateMutability": "view",
      "type": "function"
    },
    {
      "inputs": [],
      "name": "recurringDonationCount",
      "outputs": [
        {
          "internalType": "uint256",
          "name": "",
          "type": "uint256"
        }
      ],
      "stateMutability": "view",
      "type": "function"
    },
    {
      "inputs": [
        {
          "internalType": "uint256",
          "name": "",
          "type": "uint256"
        }
      ],
      "name": "recurringDonations",
      "outputs": [
        {
          "internalType": "address",
          "name": "donor",
          "type": "address"
        },
        {
          "internalType": "uint256",
          "name": "charityId",
          "type": "uint256"
        },
        {
          "internalType": "uint256",
          "name": "amount",
          "type": "uint256"
        },
        {
          "internalType": "address",
          "name": "token",
          "type": "address"
        },
        {
          "internalType": "uint256",
          "name": "interval",
          "type": "uint256"
        },
        {
          "internalType": "uint256",
          "name": "lastDonation",
          "type": "uint256"
        },
        {
          "internalType": "bool",
          "name": "active",
          "type": "bool"
        }
      ],
      "stateMutability": "view",
      "type": "function"
    },
    {
      "inputs": [
        {
          "internalType": "bytes32",
          "name": "role",
          "type": "bytes32"
        },
        {
          "internalType": "address",
          "name": "callerConfirmation",
          "type": "address"
        }
      ],
      "name": "renounceRole",
      "outputs": [],
      "stateMutability": "nonpayable",
      "type": "function"
    },
    {
      "inputs": [
        {
          "internalType": "bytes32",
          "name": "role",
          "type": "bytes32"
        },
        {
          "internalType": "address",
          "name": "account",
          "type": "address"
        }
      ],
      "name": "revokeRole",
      "outputs": [],
      "stateMutability": "nonpayable",
      "type": "function"
    },
    {
      "inputs": [
        {
          "internalType": "uint256",
          "name": "_newThreshold",
          "type": "uint256"
        }
      ],
      "name": "setNFTThreshold",
      "outputs": [],
      "stateMutability": "nonpayable",
      "type": "function"
    },
    {
      "inputs": [
        {
          "internalType": "uint256",
          "name": "_newFeeBps",
          "type": "uint256"
        }
      ],
      "name": "setPlatformFee",
      "outputs": [],
      "stateMutability": "nonpayable",
      "type": "function"
    },
    {
      "inputs": [
        {
          "internalType": "uint256",
          "name": "_newRate",
          "type": "uint256"
        }
      ],
      "name": "setVibeRewardRate",
      "outputs": [],
      "stateMutability": "nonpayable",
      "type": "function"
    },
    {
      "inputs": [
        {
          "internalType": "bytes4",
          "name": "interfaceId",
          "type": "bytes4"
        }
      ],
      "name": "supportsInterface",
      "outputs": [
        {
          "internalType": "bool",
          "name": "",
          "type": "bool"
        }
      ],
      "stateMutability": "view",
      "type": "function"
    },
    {
      "inputs": [
        {
          "internalType": "address",
          "name": "",
          "type": "address"
        }
      ],
      "name": "totalDonatedByDonor",
      "outputs": [
        {
          "internalType": "uint256",
          "name": "",
          "type": "uint256"
        }
      ],
      "stateMutability": "view",
      "type": "function"
    },
    {
      "inputs": [],
      "name": "totalDonationsValue",
      "outputs": [
        {
          "internalType": "uint256",
          "name": "",
          "type": "uint256"
        }
      ],
      "stateMutability": "view",
      "type": "function"
    },
    {
      "inputs": [],
      "name": "totalPlatformFees",
      "outputs": [
        {
          "internalType": "uint256",
          "name": "",
          "type": "uint256"
        }
      ],
      "stateMutability": "view",
      "type": "function"
    },
    {
      "inputs": [],
      "name": "vibeRewardRate",
      "outputs": [
        {
          "internalType": "uint256",
          "name": "",
          "type": "uint256"
        }
      ],
      "stateMutability": "view",
      "type": "function"
    },
    {
      "inputs": [],
      "name": "vibeToken",
      "outputs": [
        {
          "internalType": "contract VibeToken",
          "name": "",
          "type": "address"
        }
      ],
      "stateMutability": "view",
      "type": "function"
    },
    {
      "stateMutability": "payable",
      "type": "receive"
    }
  ],
  "bytecode": "0x6080346200023257601f6200291438819003918201601f1916830191906001600160401b0383118484101762000237578160a09285926040958652833981010312620002325762000050826200024d565b6200005e602084016200024d565b926200006c8382016200024d565b9362000089608062000081606085016200024d565b93016200024d565b6001805560fa600555678ac7230489e80000600755670de0b6b3a7640000600855926001600160a01b03908116918215620001fb578116958615620001c25781169283156200017e57169182156200013a576200012b949560018060a01b0319928360025416176002558260035416176003558160045416176004556006541617600655620001188162000262565b506200012481620002e2565b5062000384565b50516124d29081620004228239f35b845162461bcd60e51b815260206004820152601560248201527f496e76616c69642066656520636f6c6c6563746f7200000000000000000000006044820152606490fd5b855162461bcd60e51b815260206004820152601460248201527f496e76616c6964204e465420636f6e74726163740000000000000000000000006044820152606490fd5b855162461bcd60e51b815260206004820152601260248201527124b73b30b634b2102b24a122903a37b5b2b760711b6044820152606490fd5b855162461bcd60e51b815260206004820152601060248201526f496e76616c696420726567697374727960801b6044820152606490fd5b600080fd5b634e487b7160e01b600052604160045260246000fd5b51906001600160a01b03821682036200023257565b6001600160a01b031660008181527fad3228b676f7d3cd4284a5443f17f1962b36e491b30a40b2405849e597ba5fb5602052604081205490919060ff16620002de57818052816020526040822081835260205260408220600160ff198254161790553391600080516020620028f48339815191528180a4600190565b5090565b6001600160a01b031660008181527f7d7ffb7a348e1c6a02869081a26547b49160dd3df72d1d75a570eb9b698292ec60205260408120549091907fa49807205ce4d355092ef5a8a18f56e8913cf4a201fbe287825b095693c217759060ff166200037f57808352826020526040832082845260205260408320600160ff19825416179055600080516020620028f4833981519152339380a4600190565b505090565b6001600160a01b031660008181527fee57cd81e84075558e8fcc182a1f4393f91fc97f963a136e66b7f949a62f319f60205260408120549091907f97667070c54ef182b0f5858b034beac1b6f3089aa2d3188bb1e8929f4fa9b9299060ff166200037f57808352826020526040832082845260205260408320600160ff19825416179055600080516020620028f4833981519152339380a460019056fe6080604081815260049182361015610022575b505050361561002057600080fd5b005b600092833560e01c91826301ffc9a7146112f1575081630ed8efb5146111cf57816312e8e2c31461113c57816315a46406146110c857816322dcd13e146110a9578163248a9ca31461107f5781632abfab4d146110605781632f2ff15d14611036578163306b43941461101757816336568abe14610fd15781634395e1bf14610f89578163488e6fa114610ea157816352d02bba14610e1e578163551512de14610d3957816359d06eba14610cc65781635cbbb57414610c8e57816364f5c97014610c6657816365cf23b914610c1057816375b238fc14610bd557816391d1485414610b8f578163a217fddf14610b74578163a24ba8bf14610b1f578163aab30e7314610931578163ab83f98a14610870578163abd51a3614610838578163ae56638a1461080f578163b0e6bc00146107f0578163bdb57c1e146107d1578163c415b95c146107a8578163cd7c7ce814610753578163d3631fa514610734578163d547741f146106f5578163d55be8c6146106d8578163e2d5dcb814610697578163ef07a81f146105ae578163efe5a15d14610585578163f00511ef14610309578163f5b541a6146102ce578163f8626af81461024457508063fa0bf849146102265763fa569274146101f55780610012565b346102225781600319360112610222576020905173036cbd53842c5426634e7929541ec2318f3dcf7e8152f35b5080fd5b50346102225781600319360112610222576020906013549051908152f35b8284346102cb5760203660031901126102cb57823581526009602090815290829020805460018201546002830154600384015496840154600585015460069095015496516001600160a01b03948516815295860192909252604085015294166060830152608082019390935260a081019290925260ff16151560c082015260e090f35b0390f35b80fd5b505034610222578160031936011261022257602090517f97667070c54ef182b0f5858b034beac1b6f3089aa2d3188bb1e8929f4fa9b9298152f35b839150602092836003193601126105815781359161032561169f565b828452601185528184209460ff60068701541615610541576005860161035081548489015490611971565b42106105145760018060a01b03928360025416976001810198848a5460248951809481936323013fc760e21b8352888301525afa90811561050a5789916104d1575b501561048e57600e5494600382018181541691821560001461043a5750505060020154340361040057506103eb7f5e588a3a13a1905885478d769999dcdcbe9f8d36b30de400e99420db1596bf2c95969734905461197e565b42905582519182524290820152a26001805580f35b845162461bcd60e51b81529081018390526014602482015273125b98dbdc9c9958dd0811551208185b5bdd5b9d60621b6044820152606490fd5b90919261048994509a61047d8c6002847f5e588a3a13a1905885478d769999dcdcbe9f8d36b30de400e99420db1596bf2c9d9e9f541691019586549130916116c2565b54925491541691611ed2565b6103eb565b855162461bcd60e51b8152808301859052601a60248201527f43686172697479206e6f206c6f6e6765722076657269666965640000000000006044820152606490fd5b90508481813d8311610503575b6104e8818361162d565b810103126104ff576104f99061164f565b8a610392565b8880fd5b503d6104de565b87513d8b823e3d90fd5b50606492519162461bcd60e51b83528201526009602482015268546f6f206561726c7960b81b6044820152fd5b606492519162461bcd60e51b8352820152601d60248201527f526563757272696e6720646f6e6174696f6e206e6f74206163746976650000006044820152fd5b8280fd5b50503461022257816003193601126102225760035490516001600160a01b039091168152602090f35b9190503461058157602036600319011261058157808360e09460c083516105d4816115ca565b82815282602082015282858201528260608201528260808201528260a082015201528335815260096020522081519161060c836115ca565b60018060a01b038083541694858552600184015492602086019384526002850154818701908152836003870154169260608801938452860154946080880195865260c060ff600660058a01549960a08c019a8b520154169801971515885282519889525160208901525190870152511660608501525160808401525160a083015251151560c0820152f35b50503461022257806003193601126102225760209181906001600160a01b036106be61135f565b168152600d84528181206024358252845220549051908152f35b505034610222578160031936011261022257602090516103e88152f35b91905034610581578060031936011261058157610730913561072b600161071a611344565b93838752866020528620015461146e565b611512565b5080f35b505034610222578160031936011261022257602090600f549051908152f35b91905034610581576020366003190112610581577f2d6d16dea6ef7fc968f2380c534da2fbb1a0e035ffa1ca8e018b2948950aa47191356107926113f4565b600754908060075582519182526020820152a180f35b50503461022257816003193601126102225760065490516001600160a01b039091168152602090f35b5050346102225781600319360112610222576020906007549051908152f35b5050346102225781600319360112610222576020906008549051908152f35b50503461022257816003193601126102225760025490516001600160a01b039091168152602090f35b5050346102225760203660031901126102225760209181906001600160a01b0361086061135f565b168152600c845220549051908152f35b905060203660031901126105815780359061088961169f565b610894341515611587565b60025483516323013fc760e21b8152918201839052602090829060249082906001600160a01b03165afa928315610928575083926108e8575b506108da6108e19261165c565b349061197e565b6001805580f35b91506020823d8211610920575b816109026020938361162d565b81010312610581576108da6109196108e19361164f565b92506108cd565b3d91506108f5565b513d85823e3d90fd5b919050346105815760803660031901126105815781359160243591610954611375565b906064358415610ae757620151808110610aaf5760025482516323013fc760e21b81529485018790526001600160a01b03946020918290829060249082908a165afa908115610aa5578991610a45575b507fc7c1d72255f67a688b660cd3963387e3f91c7f74543f79040678bd7f7ae9b9de946109d3610a249261165c565b601354966109e0886118b2565b6013558551916109ef836115ca565b3383528a8584015289878401521660608201528360808201524260a0820152600160c0820152868a5260118352848a206118c1565b33885260128152610a3785848a20611937565b82519586528501523393a480f35b90508181813d8311610a9e575b610a5c818361162d565b810103126104ff577fc7c1d72255f67a688b660cd3963387e3f91c7f74543f79040678bd7f7ae9b9de946109d3610a95610a249361164f565b925050946109a4565b503d610a52565b84513d8b823e3d90fd5b815162461bcd60e51b81526020818601526012602482015271125b9d195c9d985b081d1bdbc81cda1bdc9d60721b6044820152606490fd5b815162461bcd60e51b815260208186015260126024820152710416d6f756e74206d757374206265203e20360741b6044820152606490fd5b91905034610581576020366003190112610581577fe0e31d83f8c86063a9110223c72002605ec779e2e4da2b66eff1a22e92c7e5279135610b5e6113f4565b600854908060085582519182526020820152a180f35b50503461022257816003193601126102225751908152602090f35b9050346105815781600319360112610581578160209360ff92610bb0611344565b903582528186528282206001600160a01b039091168252855220549151911615158152f35b505034610222578160031936011261022257602090517fa49807205ce4d355092ef5a8a18f56e8913cf4a201fbe287825b095693c217758152f35b505034610222578060031936011261022257610c2a61135f565b6001600160a01b031682526012602052808220805460243593908410156102cb5750602092610c58916113c6565b91905490519160031b1c8152f35b9050346105815782600319360112610581575490516001600160a01b03909116815260209150f35b8284346102cb57816003193601126102cb5760243592358152600b6020528181209081548410156102cb5750602092610c58916113c6565b919050346105815760209182600319360112610d3557358352600b82528083209281518093808654928381520195835280832092905b828210610d1e576102c78686610d14828b038361162d565b519182918261138b565b835487529586019560019384019390910190610cfc565b8380fd5b8391503461022257606036600319011261022257610d5561135f565b92602435610d61611375565b92610d6a6113f4565b6001600160a01b0395848716918215610de75750948281977f3ab9db27a4cdd8c603a752b62d5fbd93b4b3509fe2596708e9688e42bbac3576969716968715600014610dd7579180808093610dc9955af1610dc3611840565b50611870565b82519182526020820152a280f35b610de292508761243b565b610dc9565b606490602086519162461bcd60e51b83528201526011602482015270125b9d985b1a59081c9958da5c1a595b9d607a1b6044820152fd5b8284346102cb5760203660031901126102cb57823581526011602090815290829020805460018201546002830154600384015496840154600585015460069095015496516001600160a01b03948516815295860192909252604085015294166060830152608082019390935260a081019290925260ff16151560c082015260e090f35b91905034610581576020366003190112610581578135808452601160205281842080549193916001600160a01b03163303610f51576006019081549060ff821615610f1a575060ff19169055514281527ffcfe4f6f3ac95557fd511f5b7864ebaa11afd9e53c07553bc4c0876bac712bc490602090a280f35b606490602085519162461bcd60e51b83528201526011602482015270105b1c9958591e4818d85b98d95b1b1959607a1b6044820152fd5b506020606492519162461bcd60e51b835282015260126024820152712737ba103237b730ba34b7b71037bbb732b960711b6044820152fd5b505034610222578060031936011261022257610fa361135f565b6001600160a01b03168252600a602052808220805460243593908410156102cb5750602092610c58916113c6565b838334610222578060031936011261022257610feb611344565b90336001600160a01b038316036110085750610730919235611512565b5163334bd91960e11b81528390fd5b5050346102225781600319360112610222576020906010549051908152f35b91905034610581578060031936011261058157610730913561105b600161071a611344565b611494565b505034610222578160031936011261022257602090600e549051908152f35b90503461058157602036600319011261058157816020936001923581528085522001549051908152f35b5050346102225781600319360112610222576020906005549051908152f35b5050346102225760209081600319360112610581576001600160a01b036110ed61135f565b168352600a82528083209281518093808654928381520195835280832092905b828210611125576102c78686610d14828b038361162d565b83548752958601956001938401939091019061110d565b9050346105815760203660031901126105815780359061115a6113f4565b6103e8821161119d5750907fd347e206f25a89b917fc9482f1a2d294d749baa4dc9bde7fb495ee11fe49164391600554908060055582519182526020820152a180f35b606490602084519162461bcd60e51b8352820152600c60248201526b08ccaca40e8dede40d0d2ced60a31b6044820152fd5b905034610581576060366003190112610581578035906111ed611344565b91604435916111fa61169f565b611205831515611587565b6001600160a01b03848116919082156112be5760025487516323013fc760e21b815292830185905260209183916024918391165afa9586156112b557508695611269575b50826112649161125b6108e19761165c565b309033906116c2565b611ed2565b94506020853d82116112ad575b816112836020938361162d565b810103126112a957826112649161125b61129f6108e19861164f565b9750509150611249565b8580fd5b3d9150611276565b513d88823e3d90fd5b865162461bcd60e51b8152602081840152600d60248201526c24b73b30b634b2103a37b5b2b760991b6044820152606490fd5b849134610581576020366003190112610581573563ffffffff60e01b81168091036105815760209250637965db0b60e01b8114908115611333575b5015158152f35b6301ffc9a760e01b1490508361132c565b602435906001600160a01b038216820361135a57565b600080fd5b600435906001600160a01b038216820361135a57565b604435906001600160a01b038216820361135a57565b6020908160408183019282815285518094520193019160005b8281106113b2575050505090565b8351855293810193928101926001016113a4565b80548210156113de5760005260206000200190600090565b634e487b7160e01b600052603260045260246000fd5b3360009081527f7d7ffb7a348e1c6a02869081a26547b49160dd3df72d1d75a570eb9b698292ec60205260409020547fa49807205ce4d355092ef5a8a18f56e8913cf4a201fbe287825b095693c217759060ff16156114505750565b6044906040519063e2517d3f60e01b82523360048301526024820152fd5b80600052600060205260406000203360005260205260ff60406000205416156114505750565b9060009180835282602052604083209160018060a01b03169182845260205260ff6040842054161560001461150d57808352826020526040832082845260205260408320600160ff198254161790557f2f8788117e7eff1d82e926ec794901d17c78024a50270940304540a733656f0d339380a4600190565b505090565b9060009180835282602052604083209160018060a01b03169182845260205260ff60408420541660001461150d5780835282602052604083208284526020526040832060ff1981541690557ff6391f5c32d9c69d2a47ea670b442974b53935d1edc7fd64eb21e047a839171b339380a4600190565b1561158e57565b60405162461bcd60e51b81526020600482015260146024820152730446f6e6174696f6e206d757374206265203e20360641b6044820152606490fd5b60e0810190811067ffffffffffffffff8211176115e657604052565b634e487b7160e01b600052604160045260246000fd5b610200810190811067ffffffffffffffff8211176115e657604052565b67ffffffffffffffff81116115e657604052565b90601f8019910116810190811067ffffffffffffffff8211176115e657604052565b5190811515820361135a57565b1561166357565b60405162461bcd60e51b815260206004820152601460248201527310da185c9a5d1e481b9bdd081d995c9a599a595960621b6044820152606490fd5b6002600154146116b0576002600155565b604051633ee5aeb560e01b8152600490fd5b6040516323b872dd60e01b60208201526001600160a01b03928316602482015292909116604483015260648083019390935291815260a081019181831067ffffffffffffffff8411176115e65761171b9260405261171d565b565b906000602091828151910182855af115611779576000513d61177057506001600160a01b0381163b155b61174e5750565b604051635274afe760e01b81526001600160a01b039091166004820152602490fd5b60011415611747565b6040513d6000823e3d90fd5b8181029291811591840414171561179857565b634e487b7160e01b600052601160045260246000fd5b67ffffffffffffffff81116115e657601f01601f191660200190565b919080601f8401121561135a578251906117e3826117ae565b916117f1604051938461162d565b80835260209182828701011161135a5760005b81811061181957508260009394955001015290565b8581018301518482018401528201611804565b51906001600160a01b038216820361135a57565b3d1561186b573d90611851826117ae565b9161185f604051938461162d565b82523d6000602084013e565b606090565b1561187757565b60405162461bcd60e51b8152602060048201526013602482015272115512081d1c985b9cd9995c8819985a5b1959606a1b6044820152606490fd5b60001981146117985760010190565b600660c09160018060a01b03808551166bffffffffffffffffffffffff60a01b908184541617835560208601516001840155604086015160028401556003830191606087015116908254161790556080840151600482015560a0840151600582015501910151151560ff80198354169116179055565b8054680100000000000000008110156115e657611959916001820181556113c6565b819291549060031b91821b91600019901b1916179055565b9190820180921161179857565b600061271061198f60055485611785565b049283810392818411611ebe5760018060a01b03918260025416604095865163fd67db8160e01b8152868160248160049689888301525afa908115611eb457879187918391611d4f575b50826119f2948193606083940151165af1610dc3611840565b848080808a88600654165af1611a06611840565b5015611d1657670de0b6b3a7640000611a2160075484611785565b0480611cad575b600e5491611a35836118b2565b600e55875195611a44876115ca565b338752611a7e6020978789820152868b8201528960608201524260808201528460a08201528960c0820152858a52600989528a8a206118c1565b338852600a8752611a91848a8a20611937565b858852600b8752611aa4848a8a20611937565b338852600c8752888820611ab9868254611971565b9055338852600d87528888208689528752888820611ad8868254611971565b9055611ae685601054611971565b601055611af58a600f54611971565b600f558060025416803b156104ff5788809160648c518094819363daf6db8b60e01b83528c898401528b60248401528160448401525af18015611ca357908991611c8f575b5050600854851015611bab575b50509160008051602061247d833981519152979593918795936060985192835285858401528683015242888301527feff799a2aa76359bdda69d7a8a17bdbff085770fb3d267847cbeeae0a38c370360803393a482519384528301524290820152a1565b81606488928a945416918b5194859384926378ddb45f60e11b845233908401528a60248401528960448401525af1879181611c5b575b509160008051602061247d8339815191529997959391606099979593611c12575b5091939597819395979950611b47565b82875260098652600688882001600160ff198254161790558751908152827f055e34067993de700e7f718f190fdccc92a27695bb9068504a1a44258577f8eb873393a338611c02565b9091508681813d8311611c88575b611c73818361162d565b81010312611c845751906060611be1565b8780fd5b503d611c69565b611c9890611619565b611c84578738611b3a565b8a513d8b823e3d90fd5b8460035416803b15611d12578751634d24848760e11b815233848201908152602081018490529091889183919082908490829060400103925af19081611cff575b50611cfa575084611a28565b611a28565b611d0b90979197611619565b9538611cee565b8680fd5b606490602087519162461bcd60e51b83528201526013602482015272119959481d1c985b9cd9995c8819985a5b1959606a1b6044820152fd5b925050503d8088833e611d62818361162d565b8101602082820312611c8457815167ffffffffffffffff92838211611eac570190610200828203126104ff57895192611d9a846115fc565b8251818111611eb05782611daf9185016117ca565b84526020830151818111611eb05782611dc99185016117ca565b60208501528a830151908111611eac5790611de59183016117ca565b89830152611df56060820161182c565b60608301526080810151608083015260a0810151848110156104ff57886119f2948960608684979685979660a08798015260c081015160c083015260e081015160e0830152610100611e4881830161182c565b9083015261012080820151908301526101408082015190830152610160808201519083015261018080820151908301526101a0611e8681830161164f565b908301526101c080820151908301526101e08091015190820152945050935094506119d9565b8980fd5b8a80fd5b88513d89823e3d90fd5b634e487b7160e01b83526011600452602483fd5b91600554612710611ee560009285611785565b049384840393808511611ebe5760018060a01b039283600254169060409687519663fd67db8160e01b885282886024816004978a898301525afa9788156124315783986122dc575b509086808493169889156000146122b8579280809381936060611f57970151165af1610dc3611840565b808080808b89600654165af1611f6b611840565b501561227f575b670de0b6b3a7640000611f8760075485611785565b049081612218575b600e5492611f9c846118b2565b600e55885196611fab886115ca565b338852611fe5602098888a820152878c8201528a60608201524260808201528560a08201528460c082015286855260098a528b85206118c1565b338352600a8852611ff8858b8520611937565b868352600b885261200b858b8520611937565b338352600c8852898320612020878254611971565b9055338352600d8852898320878452885289832061203f878254611971565b905561204d86601054611971565b60105561205c8b600f54611971565b600f558060025416803b15610d3557838a60648a838f51958694859363daf6db8b60e01b85528a8501528d602485015260448401525af1801561220e579084916121fa575b5050600854861015612113575b5050509160008051602061247d833981519152979593918795936060985192835285858401528683015242888301527feff799a2aa76359bdda69d7a8a17bdbff085770fb3d267847cbeeae0a38c370360803393a482519384528301524290820152a1565b816064899285945416918c5195869384926378ddb45f60e11b845233908401528b60248401528a60448401525af1809282936121ca575b5091899795939160609a60008051602061247d8339815191529c9a989694612180575b5050829496989a508193959799506120ae565b818560069352600989522001600160ff198254161790558751908152827f055e34067993de700e7f718f190fdccc92a27695bb9068504a1a44258577f8eb873393a338808861216d565b9092508781813d83116121f3575b6121e2818361162d565b81010312610222575191606061214a565b503d6121d8565b61220390611619565b6105815782386120a1565b8b513d86823e3d90fd5b908560035416803b15610581578851634d24848760e11b815233858201908152602081018490529091849183919082908490829060400103925af1908161226c575b50612266575080611f8f565b90611f8f565b61227890939193611619565b913861225a565b865162461bcd60e51b81526020818401526013602482015272119959481d1c985b9cd9995c8819985a5b1959606a1b6044820152606490fd5b6122c8935060600151168861243b565b6122d78886600654168861243b565b611f72565b9097503d8084833e6122ee818361162d565b8101602082820312610d3557815167ffffffffffffffff928382116112a95701906102008282031261242d578a5192612326846115fc565b8251818111611d12578261233b9185016117ca565b84526020830151818111611d1257826123559185016117ca565b60208501528b8301519081116112a957906123719183016117ca565b8a8301526123816060820161182c565b60608301526080810151608083015260a08101518581101561242d57828992839260a0889796015260c081015160c083015260e081015160e08301526101006123cb81830161182c565b9083015261012080820151908301526101408082015190830152610160808201519083015261018080820151908301526101a061240981830161164f565b908301526101c080820151908301526101e080910151908201529992935050611f2d565b8480fd5b89513d85823e3d90fd5b60405163a9059cbb60e01b60208201526001600160a01b0392909216602483015260448083019390935291815261171b9161247760648361162d565b61171d56fef1d6c8ee14081f641e2073a1064d870f135f1001a301c6b14a7b9655672fec11a2646970667358221220f770ba18eaf6b1bd53b4f8e05d9f44b4769e9b13819d6103cd6a3ce527cd4fcc64736f6c634300081400332f8788117e7eff1d82e926ec794901d17c78024a50270940304540a733656f0d",
  "linkReferences": {},
  "deployedLinkReferences": {}
}